:020000040800F2
:10000000780700204501000865240008C51F000886
:100010003524000809090008812B000800000000B1
:10002000000000000000000000000000892400081B
:100030000B09000800000000872400088B2400083A
:100040005F0100085F0100085F0100085F01000810
:100050005F0100085F0100085F0100085F01000800
:100060005F0100085F0100085F0100085F010008F0
:100070005F0100085F0100085F0100085F010008E0
:100080005F0100085F0100085F0100085F010008D0
:100090005F0100085F0100085F0100085F010008C0
:1000A0005F0100085F0100085F01000825250008C6
:1000B0005F0100085F0100085F0100085F010008A0
:1000C0005F0100085F0100085F0100085F01000890
:1000D0005F010008612B00085F0100085F01000854
:1000E0005F0100085F0100085F0100085F01000870
:1000F0005F0100085F0100085F0100085F01000860
:100100005F0100085F0100085F0100085F0100084F
:100110005F0100085F0100085F0100085F0100083F
:100120005F0100085F0100085F0100085F0100082F
:10013000DFF80CD000F0D6FB00480047A1340008DF
:10014000780700200648804706480047FEE7FEE79C
:10015000FEE7FEE7FEE7FEE7FEE7FEE7FEE7FEE777
:10016000DD24000831010008202A04DB203A21FAAE
:1001700002F00021704721FA02F3D040C2F12002C0
:100180009140084319467047D2B201E000F8012BB4
:10019000491EFBD270470022F6E710B513460A4607
:1001A00004461946FFF7F0FF204610BD034611F83C
:1001B000012B00F8012B002AF9D11846704780EA7C
:1001C000010210B502F00043400022D04A001FD0C7
:1001D000010E01EB1261C0F35600C2F3560240F467
:1001E000000042F40002A0FB022000047F39140446
:1001F00000D0401C50EA124001D44000491EC2B257
:100200000C0604EBD010401C4008802A02D003E00A
:10021000002010BD20F00100002900DA0020184362
:1002200010BD30B480EA010202F0004530F0004217
:1002300021F0004013D090B1C30DD40DC2F31601CC
:10024000C0F31600E41A41F4000140F400027D34CA
:10025000914201D3641C00E04900002C02DA30BC5A
:10026000002070474FF400000023914201D3891A07
:10027000034340084FEA4101F7D151B1914202D105
:100280004FF0004105E002D24FF0010101E06FF0B4
:10029000010103EBC450284430BC00F0EFB92DE954
:1002A000FE4F804681EA0300C00F0C46009021F00B
:1002B000004123F00045B8EB0200A94105D24046B9
:1002C000214690461C460B46024623F00040104350
:1002D00047D0270DC7F30A00C3F30A510290401A12
:1002E000019040286BDAC3F3130040F4801B0098A0
:1002F000924620B10023D2EB030A63EB0B0B01986B
:100300005946C0F14002504600F097F906460D46A6
:1003100050465946019A00F09FF910EB08006141E0
:10032000002487EA115284EAE7731A4340D0009A06
:1003300062B3019A012A4FEA075215DC001B61EBF8
:1003400002014FF0004202EA0752CDE90042001CD0
:1003500041F5801132462B4600F0D6F903B0BDE8D6
:10036000F08F40462146F9E7001B61EB0201001CBB
:1003700041F5801300185B412018A2F5001747EBE8
:10038000030140EAD570B6196D4111E06D084FEADE
:10039000360645EAC0754FEA0752001B61EB0201C1
:1003A000001C41F5801149084FEA30000019514105
:1003B00032462B4603B0BDE8F04F00F096B90098E6
:1003C000012240000023D0EB020263EBE0730098AF
:1003D00021464FEAE074B8EB000061EB0401E9E765
:1003E00083F000435BE781F0004158E72DE9FE4FC1
:1003F00081EA030404F0004421F0004100944FF02E
:10040000000B23F0004350EA01045ED052EA0304DB
:100410005BD0C3F30A54C1F30A552C44A4F2F3345D
:100420000194A0FB0254C1F3130141F48011C3F302
:10043000130343F4801301FB024400FB034E840AC0
:10044000970A44EA815447EA8357A4FB0768029558
:100450008D0A05FB07854FEA932C04FB0C542705F6
:10046000029D4FEA065847EA1637B5EB08056EEBD2
:10047000070C870E920E47EA811742EA8312A7FB08
:100480000201B6EB0B0164EB00042B0D43EA0C33C5
:100490005E1844EB1C50DA465146E7FB0201C5F3F7
:1004A00013044FEA0B3343EA14534FEA0432019C1E
:1004B00043EA0603A4F10C040294009CCDE900B4C5
:1004C00000F022F903B0BDE8F08F00200146F9E703
:1004D00070B521F0004303430CD0C1F30A5500244A
:1004E000D5EB040564EB0403D617AD1AB34102DB68
:1004F0000020014670BD201841EB025170BD9623CB
:100500000022114600F0C3B80EB540F2334102910B
:100510000021CDE900110A460B4600F0F5F803B0C2
:1005200000BD00F0004220F00040C10DC0F31600F5
:1005300040F400007F2901DA00207047962903DC8F
:10054000C1F19601C84001E096398840002AF4D0F4
:1005500040427047C1F30A5210B5C1F3130140F293
:10056000FF3341F480119A4201DA002010BD40F2BD
:1005700033439A42A2F2334203DC5242FFF7F4FDC6
:1005800010BD904010BD00F0004230F000400AD095
:10059000C10D01F56071C0F3160042EA0151C208B5
:1005A00040071143704700200146704730B50B46A5
:1005B000014600202022012409E021FA02F59D4293
:1005C00005D303FA02F5491B04FA02F52844151E67
:1005D000A2F10102F1DC30BD2DE9F05F05460020FB
:1005E00092469B4688460646814640241BE02846A4
:1005F000414647462246FFF7B7FD53465A46C01AC2
:10060000914110D311461846224600F016F82D1AD3
:1006100067EB01084F4622460120002100F00DF84B
:1006200017EB00094E41201EA4F10104DFDC48460F
:1006300031462A464346BDE8F09F202A04DB203A93
:1006400000FA02F1002070479140C2F1200320FA25
:1006500003F3194390407047202A06DBCB17203A5A
:1006600041FA02F043EAE07306E041FA02F3D040B7
:10067000C2F1200291400843194670470029A8BFE3
:100680007047401C490008BF20F00100704710B4BB
:10069000B0FA80FC00FA0CF050EA010404BF10BC70
:1006A000704749B1CCF1200421FA04F411FA0CF19D
:1006B00018BF012121430843A3EB0C01CB1D4FEAD6
:1006C00000614FEA102042BF002010BC704700EBD1
:1006D000C35010440029A4BF10BC7047401C4900FF
:1006E00008BF20F0010010BC704710B5141E73F154
:1006F000000408DA401C41F1000192185B411A43E2
:1007000001D120F0010010BD2DE9F04D92469B462D
:1007100011B1B1FA81F202E0B0FA80F220329046D3
:10072000FFF78BFF04460F4640EA0A0041EA0B013F
:1007300053465A46084313D0114653EA010019D0D4
:10074000C8F140025046FFF70FFD05460E465046E1
:1007500059464246FFF771FF084305D0012004E0E7
:1007600020463946BDE8F08D0020054346EAE07694
:100770002C4337430A986305E40AA0EB08000022E3
:10078000FD0A44EA47540A3002D500200146E9E751
:10079000010510196941DDE9084500196941BDE805
:1007A000F04DA2E72DE9F04D81EA030404F0004B7F
:1007B00021F0004514464FF0000A23F0004150EAB2
:1007C000050220D054EA01021DD0C5F30A570246A3
:1007D000C5F31303C1F31300C1F30A5640F48015A7
:1007E00043F48013A7EB0608101BD64608F2FD3829
:1007F00073EB050002D308F1010801E092185B4198
:10080000B8F1000F03DA00200146BDE8F08D0020AA
:100810004FF48011064684460EE0171B73EB050764
:1008200005D3121B63EB050306434CEA010C490890
:100830004FEA300092185B4150EA0107EDD152EACD
:10084000030012D082EA040083EA0501084305D0C0
:10085000101BAB4106D20122002306E000224FF01C
:10086000004302E06FF0010253101AEB06004CEB5C
:10087000085110EB0A0041EB0B01BDE8F04DFFF70A
:1008800034BFC1F30A52C1F3130140F2FF3341F404
:1008900080119A4202DA00200146704740F2334349
:1008A0009A42A2F2334202DC5242FFF75DBCFFF7EC
:1008B000C4BE000030B5041E71F1000404DB4FF02B
:1008C0000044404264EB0101141E73F1000405DB97
:1008D0001C464FF00043524263EB0403994208BFA9
:1008E000904230BD064C074D06E0E06840F0010341
:1008F00094E8070098471034AC42F6D3FFF71CFC8D
:10090000D8380008F8380008FEE7704701B50098AD
:1009100001E0401E00900028FBD108BD2DE9F05FEA
:1009200090F821100024022903D0042181630124BE
:1009300085E001680A6822F00E020A6001680A6810
:1009400022F001020A603F4E3E4FB215DFF8F4C0BC
:10095000DFF8F090DFF8ECA0DFF8E8B0DFF8E4E0D3
:100960000168783F13011502ACF1640CA9F150093C
:10097000AAF13C0AABF1280BAEF1140E4FF480182B
:10098000B14227D9B9420ED0614512D049451DD098
:10099000514518D0594518D0714501D1424615E04E
:1009A000294EB14201D1012210E0274E1436B14246
:1009B00001D110220AE0244E2836B14206D0224A44
:1009C0003C32914201D11A4600E02A461E49091FD5
:1009D0000A602BE0B94213D0614517D0494522D0B7
:1009E00051451DD059451DD0714501D142461AE0EF
:1009F000B14202D14FF0807215E0134EB14201D1E5
:100A0000012210E0104E1436B14201D110220AE04A
:100A10000D4E2836B14206D00B4A3C32914201D1EC
:100A20001A4600E02A46074980394A60012180F8C9
:100A30002110002180F82010416B01B18847204629
:100A4000BDE8F09F800002400804024070B50446F3
:100A500000F00CF90546601C02D0044800780444FC
:100A600000F004F9401BA042FAD370BD280000201A
:100A70002DE9F84FDFF8B8A100220AF1040B144663
:100A800001274FF00F090BF1040E00BF0B6807FAA6
:100A900004F52B40AB4274D1DFF898C14E68A6EB49
:100AA0000C0866452BD00DDC032E34D005DC36B3A4
:100AB000012E19D0022E2FD11BE0112E16D0122E8E
:100AC0002AD119E0B8F5881F19D006DCB8F5803FA7
:100AD00015D0B8F5801F1FD111E0B8F5001F0ED05A
:100AE000B8F5041F18D10AE0CA6815E0CA68121DDB
:100AF00012E0CA6808320FE0CA680C320CE08A685B
:100B00002AB1012A4FF0080203D0456104E0042213
:100B100002E0056100E00022FF2B01D8064601E05B
:100B200000F104064FEA840501D9A5F12005D6F8A5
:100B300000C009FA05F82CEA080C02FA05F54CEA9F
:100B4000050CC6F800C04D68ED006AD53A4DAE6997
:100B500046F00106AE61AD6924F0030605F001051B
:100B60000095364D06EB050CDCF80850A6074FEA59
:100B7000167809FA08F6B543314EB04202D1002684
:100B80001AE04EE02F4EB04201D1012614E02E4E65
:100B9000B04201D102260FE02C4EB04201D1032613
:100BA0000AE02B4EB04201D1042605E0294EB042A6
:100BB00001D1052600E0062606FA08F62E43CCF8F9
:100BC00008604D68DAF80060ED03554601D51E4314
:100BD00000E09E432E604D68AD0305D5DBF8006054
:100BE0001E43CBF8006004E0DBF800509D43CBF8D7
:100BF00000504D68DEF80060ED02754601D51E43D9
:100C000000E09E432E604D68AD0205D5084D0C35C1
:100C10002E681E432E6004E0054E0C3635689D4359
:100C20003560641C102CFFF431AFBDE8F88F000074
:100C300000040140000011100010024000000140BB
:100C400000080140000C0140001001400014014068
:100C500000180140001C01408068084000D00120BD
:100C600070470AB1016170470904FBE701488068D9
:100C70007047000028000020024881680278114473
:100C80008160704728000020074810B5016841F0D6
:100C900010010160032000F073F8002000F006F856
:100CA00000F024F8002010BD0020024070B50D4D6A
:100CB00004464FF47A712878B1FBF0F00A490968CC
:100CC000B1FBF0F000F0FCFA48B9102C07D200227A
:100CD0002146501E00F034F800206C6070BD0120E9
:100CE00070BD000028000020340000200C4808B52A
:100CF000816941F001018161816901F00101009187
:100D0000C16941F08051C161C06900F0805000901C
:100D10000448416821F0E06141F00071416008BD84
:100D2000001002400000014000F01F02012191402C
:100D30004009800000F1E020C0F800117047000079
:100D4000F0B40E4B1B680C46C3F30223C3F1070536
:100D5000042D00D90425191D072901D2002300E024
:100D6000DB1E012606FA05F1491E214099409E40EE
:100D7000761E16403143F0BC01F075BB0CED00E06F
:100D8000064900F0070208684FF6FF03184040EAE2
:100D90000220034A10430860704700000CED00E099
:100DA0000000FA052DE9F047DFF8548105460E46AC
:100DB000D8F8000000F00700B0420CD2D8F80010BC
:100DC00021F007013143C8F80010D8F8000000F006
:100DD0000700B0426FD128684A4C810712D54007FE
:100DE00003D5606840F4E06060602878000703D5B0
:100DF000606840F4605060606068A96820F0F000AE
:100E0000084360602878C00744D06868012816D07D
:100E10002168022816D0890700294CDA616821F080
:100E2000030101436160FFF721FF6968074641F252
:100E3000883001290ED00229814618D026E0216889
:100E40008903E9E78901E7E7FFF710FFC11B49457F
:100E500001D918E081466068C0F381000128F3D110
:100E600018E000BFFFF702FFC11B49450BD86068BF
:100E7000C0F381000228F5D10CE000BFFFF7F6FEB9
:100E8000C11B494502D90320BDE8F087606810F016
:100E90000C0FF3D1D8F80010404601F00701B14221
:100EA0000BD9016821F0070131430160006800F0AF
:100EB0000700B04201D00120E6E72878400705D5B9
:100EC0006068E96820F4E060084360602878000703
:100ED00006D56068296920F4605040EAC10060606E
:100EE00000F036F86168084AC1F30311515CC8404C
:100EF000064908600020FFF7D9FE0020C4E7000083
:100F00000020024000100240BE38000834000020DB
:100F10000448054900684968044AC1F30221515C4C
:100F2000C84070473400002000100240CE3800084E
:100F30000448054900684968044AC1F3C221515C6C
:100F4000C84070473400002000100240CE3800082E
:100F500012A185B00FC98DE80F0014A0144A0068D3
:100F600004905168134801F00C03042B10D0082B97
:100F70000ED1C1F38343C9031DF803000AD551689C
:100F800004AAC1F34041515C0A4A5043B0FBF1F05E
:100F900005B0704708494843FAE70000020304051A
:100FA000060708090A0B0C0D0E0F101001020000B5
:100FB0000010024000127A0000093D002DE9F84FB0
:100FC00004460078B94DC00748D06868C0F3810076
:100FD000012807D06868C0F38100022809D1686839
:100FE000C00306D52868800338D5606800286FD014
:100FF00034E06068B0F5803F0BD010B1B0F5A02FA1
:1010000011D0286820F480302860286820F48020DF
:1010100002E0286840F480302860606888B1FFF7FB
:1010200025FE064609E0286840F480202860F0E7A5
:10103000FFF71CFE801B642875D828688003F7D54D
:101040000CE0FFF713FE064605E000BFFFF70EFEBB
:10105000801B6428F0D828688003F7D42078944E49
:1010600080074FF001094FF000083BD5686810F089
:101070000C0F07D06868C0F38100022809D16868A6
:10108000C00306D42868800714D5206901281FD121
:1010900010E02069B0B1C6F80090FFF7E7FD074601
:1010A00005E000BFFFF7E2FDC01B0228C4D8286896
:1010B0008007F7D52868616920F0F80040EAC10090
:1010C00028600FE0C6F80080FFF7D0FD074606E075
:1010D000E9E000BFFFF7CAFDC01B022823D828683B
:1010E0008007F7D4207800072CD57248A169D9B1C0
:1010F000C0F80090FFF7BAFD074604E0FFF7B6FD21
:10110000C01B02280FD8686A8007F7D56A484FF4D9
:10111000FA510068B0FBF1F0009000BF0098411E4A
:101120000091FAD20EE080E0C0F80080FFF79EFD4B
:10113000074604E0FFF79AFDC01B022875D8686ACD
:101140008007F7D42078400760D5E8690027C00001
:1011500008D4E86940F08050E861E869012700F0B0
:101160008050009055480168C90513D40168834632
:1011700041F480710160FFF779FD824606E000BF0F
:10118000FFF774FDA0EB0A0064284ED8DBF80000DE
:10119000C005F5D5E06801280AD008B1052813D0AC
:1011A000286A20F001002862286A20F0040002E08A
:1011B000286A40F001002862E06841F2883B98B15B
:1011C000FFF754FD82460BE0286A40F004002862D5
:1011D000EEE700BFFFF74AFDA0EB0A0159455AD8D8
:1011E000286A8007F6D50CE0FFF740FD824605E04F
:1011F000FFF73CFDA0EB0A0159454CD8286A80074F
:10120000F6D41FB1E86920F08050E861E06988B346
:101210006968C1F38101022945D00228C6F86080BF
:1012200004D0FFF723FD044638E034E0FFF71EFD4D
:10123000074604E0FFF71AFDC01B02282BD82868D8
:101240008001F7D4206AB0F5803F05D16868A168B5
:1012500020F4003008436860D4E908010843696855
:1012600021F4741108436860C6F86090FFF7FEFC33
:10127000044606E015E000BFFFF7F8FC001B02285B
:1012800009D828688001F7D50BE000BFFFF7EEFC16
:10129000001B022802D90320BDE8F88F28688001CE
:1012A000F4D40020F8E70120F6E700000010024027
:1012B000000042428004424234000020007000409E
:1012C00010B5401EB0F1807F01D3012010BD4FF05A
:1012D000E02460610F21601701F0C5F80020A061D3
:1012E00007202061002010BD7047704730B590F88E
:1012F0003C20012A20D0012280F83C20022380F8E3
:101300003D3003685C6824F070045C6003685C68CE
:101310000D682C435C6003689C6824F080049C602A
:1013200003689C6849680C439C6080F83D2000215C
:1013300080F83C10084630BD022030BD10B50400D6
:1013400003D094F83D0010B107E0012010BD00204B
:1013500084F83C00204600F00DF8022084F83D009F
:10136000211D206801F0E4F8012084F83D000020F0
:1013700010BD000008B500680649884208D106483B
:10138000C16941F00201C161C06900F00200009032
:1013900008BD0000000400400010024070B5044683
:1013A00090F83C00012817D0012584F83C50022019
:1013B00084F83D002068826822F0770222F47F42A0
:1013C00082600868502837D00DDC202859D005DC11
:1013D00088B3102841D151E0022070BD302853D08D
:1013E00040283AD13FE060282ED070280BD0B0F5CD
:1013F000805F03D0B0F5005F2FD110E020688168D6
:1014000021F0070115E0CB68D1E90121206801F046
:10141000E0F82168886840F0770088601DE0CB68BC
:10142000D1E90121206801F0D4F82068816841F4F5
:101430008041816011E01EE0CA684968206801F0BF
:101440009DF95021206806E0CA684968206801F0CB
:10145000DDF96021206801F0C6F884F83D500020D5
:1014600084F83C0070BDCA684968206801F086F9BC
:1014700040212068EFE700212068ECE71021206878
:10148000E9E720212068E6E730212068E3E7000053
:101490002DE9F05F0446007F564D4FF0010A4FF6EC
:1014A000FF7B4FF0000901284ED1534F534E4FF6AA
:1014B000F578387888B1012873D10021204600F0F2
:1014C0003EFB4F494F4608602168C1F824903168BF
:1014D0004C4A884213D9401A18E00021204600F0F7
:1014E0002EFB306087F800A02068016A01EA08013D
:1014F00001622068016A41F00201016224E0814238
:1015000001D8106803E0ABEB010108441060FEF75E
:10151000FBFF3D4A3D4BFEF769FF4FF0FF32FEF700
:10152000D7FFFFF717F83A4908703348077020686B
:10153000016A01EA080101622068016A0162286803
:10154000C16821F00201C160207F082829D1314FF4
:10155000314E4DF6FF78387890B1BA46012820D147
:101560000C21204600F0EBFA2C494F460860216818
:10157000C1F8249031682A4A884214D9401A19E0E7
:101580000C21204600F0DBFA306087F800A02068CC
:10159000016A01EA080101622068016A41F4005110
:1015A0000162BDE8F09F814201D8106803E0ABEB17
:1015B000010108441060FEF7A7FF134A134BFEF722
:1015C00015FF4FF0FF32FEF783FFFEF7C3FF15490B
:1015D00008708AF800702068016A01EA0801016257
:1015E0002068016A01622868C16821F01001C160A9
:1015F000D7E70000F00100201800002000000020C4
:1016000004000020100000209CC420B07268A13F9C
:101610001A00002019000020080000200C00002003
:10162000140000201B0000202DE9F041044690F832
:101630003C000D4601283BD0012684F83C60022086
:1016400084F83D009AB3042A44D02068082A53D075
:10165000D5E90027E968036A23F480530362D0F8D0
:101660001CC0036A2CF4407C4CEA07274FF6FF7C31
:1016700027F470470CEA01313943770323F4005310
:1016800007EA02321A43C16102622068C16921F48B
:101690004061C1612068C169AA6841EA0221C16153
:1016A00084F83D60002084F83C00BDE8F08101E052
:1016B0000220FAE7D5E90012EB68206801F070F823
:1016C0002068816921F00C01816120688169AA6824
:1016D00011430FE0D5E90012EB68206801F0A8F88B
:1016E0002068816921F44061816120688169AA686C
:1016F00041EA02218161D3E7D5E9002C2F7B016A01
:1017000021F480710162C169036A21F0030141EA99
:101710000C0121F0F00C39074FF400774CEA11610D
:1017200023F4007307EA02221A43C16102622068AF
:10173000C16921F00C01C1612068C169AA68114327
:10174000ADE710B5040003D094F83D0010B107E0F8
:10175000012010BD002084F83C00204600F00CF869
:10176000022084F83D00211D206800F0E1FE0120E8
:1017700084F83D00002010BD00B585B00021009127
:101780000191029103910068124988421FD11248C9
:10179000816941F400618161816901F40061049112
:1017A000816941F0040181618069694600F00400AB
:1017B00004904FF4106000900848FFF759F9002298
:1017C00011461B20FFF7BCFA1B20FFF7ADFA05B04E
:1017D00000BD0000002C0140001002400008014044
:1017E00010B50268044631B1042908D0082915D083
:1017F0000C2908D116E0D06840F0020002E0D06861
:1018000040F00400D0600122206800F0D7FE20687C
:10181000016841F001010160002010BDD06840F076
:101820000800EFE7D06840F01000EBE770B5044621
:10183000006801694FF00005C943890715D4C168E4
:10184000C943890711D4E91E01610120207720686E
:1018500080698007204602D0FFF71AFE04E000F0FE
:10186000CBF8204600F04DF9257720680169C9437F
:10187000490717D4C168C943490713D46FF004015D
:101880000161022020772068806910F4407F2046A3
:1018900002D0FFF7FDFD04E000F0AEF8204600F0B6
:1018A00030F9257720680169C943090716D4C16852
:1018B000C943090712D46FF00801016104202077A1
:1018C0002068C0698007204602D0FFF7E1FD04E0F0
:1018D00000F092F8204600F014F92577206801699D
:1018E000C943C90617D4C168C943C90613D46FF0E8
:1018F00010010161082020772068C06910F4407F42
:10190000204602D0FFF7C4FD04E000F075F8204641
:1019100000F0F7F8257720680169C943C90708D1A5
:10192000C168C943C90704D1891E0161204600F07E
:1019300005F920680169C943090609D4C168C9438A
:10194000090605D46FF0800101612046FFF7CCFC49
:1019500020680169C943490609D4C168C9434906D9
:1019600005D46FF040010161204600F00AF92068BB
:101970000169C94389060BD4C168C943890607D4E4
:101980006FF0200101612046BDE87040FFF7ADBC5B
:1019900070BD000000B585B0002100910191029159
:1019A00003910068104988421BD11048816941F0B9
:1019B000100181618069694600F0100004904FF4C5
:1019C000307000900220019003900948FFF750F812
:1019D0000848416821F4406141F0E06141F4406110
:1019E000416005B000BD000000040040001002404E
:1019F0000010014000000140704770B5044690F8A7
:101A00003C000D4601280DD0012684F83C600220E0
:101A100084F83D0042B1042A18D0082A2AD00C2AA2
:101A20004DD139E0022070BD206800F0E5FD20684E
:101A3000816941F0080181612068816921F0040118
:101A40008161206881692A69114311E0206800F0F2
:101A500003FE2068816941F4006181612068816929
:101A600021F480618161206881692A6941EA02214B
:101A7000816124E0206800F025FE2068C16941F002
:101A80000801C1612068C16921F00401C1612068B9
:101A9000C1692A69114311E0206800F047FE2068FF
:101AA000C16941F40061C1612068C16921F48061AC
:101AB000C1612068C1692A6941EA0221C16184F8D3
:101AC0003D60002084F83C0070BD10B5040003D0D8
:101AD00094F83D0010B107E0012010BD002084F80B
:101AE0003C00204600F00CF8022084F83D00211D47
:101AF000206800F01DFD012084F83D00002010BD8D
:101B00007047704710B504460068012200F056FD8A
:101B100008492068884202D00749884203D1416CB5
:101B200041F4004141642068016841F00101016015
:101B3000002010BD002C014000340140704790F897
:101B40003C300022012B0AD0012380F83C3041B107
:101B5000042909D008290AD00C290DD10AE0022055
:101B6000704701684A6B07E001688A6B04E001680E
:101B7000CA6B01E001680A6C002180F83C10104635
:101B8000704770477047000070B5026804461068DF
:101B9000D168536910F00F0F50D003F0010501F424
:101BA000907635435DD0C20705D0CA0503D5E26BF8
:101BB00042F00102E263420705D5DA0703D0E26B87
:101BC00042F00202E263820705D5DA0703D0E26B36
:101BD00042F00402E263020705D5DA0703D0E26BA4
:101BE00042F00802E263E26B002A33D0800604D59B
:101BF000880602D5204600F04CFE20684069E16B63
:101C0000C0F38010090700D428B3204600F033FE4B
:101C10002068416949061AD5416921F040014161B6
:101C2000606BA0B11B494163606BFEF777FE002833
:101C300010D0606B416BBDE870400847830610D53B
:101C40008B060ED52046BDE8704000F022BE20462F
:101C5000FFF798FF70BD2046FFF794FF0020E06378
:101C600070BD030606D50B0604D52046BDE87040BE
:101C700000F012BF4006F3D54806F1D5D1682046E2
:101C800021F04001D160202184F8391000F06FF973
:101C900070BD00006728000870B5040004D094F8F7
:101CA0003900002510B106E0012070BD84F83850DD
:101CB000204600F023F8242084F839002068C16809
:101CC00021F40051C160204600F02EFE2068016919
:101CD00021F4904101612068416921F02A014161AC
:101CE0002068C16841F40051C160E563202084F898
:101CF000390084F83A00002070BD000070B586B04D
:101D00000024009401940294039403682B482A4E03
:101D1000022103220515B34229D1836943F480438C
:101D20008361836903F480430493836943F004036C
:101D300083618069224E00F0040004900802CDE91E
:101D40000001039269463046FEF792FECDE9005449
:101D5000694630460294FEF78BFE0022114625208C
:101D6000FEF7EEFF2520FEF7DFFF06B070BD154E33
:101D7000B342FAD1C36943F48023C361C36903F456
:101D800080230493836943F0080383618069CDE96C
:101D9000005100F00800CDE903200B4D69462846AC
:101DA000FEF766FEE814CDE9000469462846029471
:101DB000FEF75EFED9E70000003801400010024047
:101DC0000008014000480040000C014090F83A3003
:101DD000202B22D1F9B1F2B190F83830012B1CD070
:101DE00081628285C2850021C163222280F83A2067
:101DF00080F838100168CA6842F48072CA600168CD
:101E00004A6942F001024A610068C16841F020015C
:101E1000C160002070470120704702207047000019
:101E200070B522488278017845781044C0780A2835
:101E30003AD11F4C302935D11C48302D8379427955
:101E40000179C07808D0312D0DD0322D14D0332D2A
:101E500019D0342D1ED025E0E370A270617020707F
:101E60000020216805E0E370A270617020700120FD
:101E7000216800F0B9F815E0E370A270617020707D
:101E8000002021680CE0E370A270617020700120D6
:101E9000216805E0E370A270617020700220216863
:101EA00000F0D2FA0020206070BD00001C0000206D
:101EB000240000202DE9F843044690F839001F461D
:101EC00016460D46202850D1A5B19EB194F8380091
:101ED00001284AD0012084F838004FF00008C4F8E7
:101EE0003C80212084F83900FEF7C0FEA68481469C
:101EF000E68426E00120BDE8F883E08C401EE08403
:101F0000A0684B46B0F5805F4FF000024FF08001B3
:101F10002046009703D000F0F0FDE8B90DE000F096
:101F2000ECFDC8B928882168C0F308004860206922
:101F300008B16D1C05E0AD1C03E0216815F8010B2C
:101F40004860E08C0028D8D14B4600224021204632
:101F5000009700F0D2FD08B10320CCE7202084F8E0
:101F6000390084F838800020C5E70220C3E77047B5
:101F700010B5124C012210212046FEF772FE0122FC
:101F800020212046FEF76DFE0A2001F07DFA002296
:101F900010212046FEF765FE002220212046FEF794
:101FA00060FE07480168CA6842F00202CA60006821
:101FB000C16841F01001C16010BD0000000801407F
:101FC000F0010020FEE7000006480021017041708A
:101FD0008170C17041608160C16001614161816156
:101FE00070470000380000200B4A58B101280BD080
:101FF00002280BD003280BD004280BD0052800D1D1
:1020000091617047516070479160704711617047EE
:10201000D16070475161704738000020044B4FF485
:10202000805108B1002200E001221846FEF719BED7
:102030000014014070B51D461446049E00F02AF8B5
:1020400004FB05F03146BDE8704000F001B8000027
:1020500010B500222C23DC062380034B01E01980FD
:10206000521C8242FBD310BD0000026008B5012063
:10207000FFF7D4FF00F0EAF800F02CF84FF6FF70FD
:10208000002100904FF4A073F0220846FFF7D2FF22
:1020900008BD000070B54FF0C0452A242C800C4CC0
:1020A000060A2680C6B226801044401E020A2280FC
:1020B000C0B220802B202880080A2080C8B220804F
:1020C000C818401E010A2180C0B2208070BD0000E7
:1020D0000000026000B54FF0C041CF200880594891
:1020E000002202808122028030220280ED220A80BA
:1020F0006422028003220280122202808122028056
:10210000E8220A8085220280102202807822028042
:10211000CB220A80392202802C22028000220280F7
:102120003422028002220280F7220A8020220280CA
:10213000EA220A80002202800280B1220A80002264
:1021400002801B220280B6220A800A220280A2227A
:102150000280C0220A8035220280C1220A80112218
:102160000280C5220A80452202800280C7220A809E
:10217000A2220280F2220A800022028026220A8005
:1021800001220280E0220A800F22028026220280A1
:10219000242202800B2202800E2202800922028069
:1021A00054220280A8220280462202800C22028051
:1021B00017220280092202800F2202800722028059
:1021C00000220280E1220A8000220280192202807D
:1021D0001B22028004220280102202800722028039
:1021E0002A220280472202803922028003220280B2
:1021F00006220280028030220280382202800F22D2
:10220000028036220A80C82202802A220A80002206
:10221000028002800280EF2202802B220A800022AC
:1022200002800280012202803F2202803A220A803C
:1022300055220280112008800348FEF767FB292001
:10224000088000BD00000260FCBF020070B50A4CAF
:10225000002202212046FEF704FD084D2846FEF725
:1022600055FB012202212046FEF7FBFC2846BDE873
:102270007040FEF74BBB000000180140FCBF02009D
:10228000F0B585B000242B48009401940294039487
:10229000816941F010018161816901F010010491AF
:1022A000816941F004018161816901F004010491B7
:1022B000816941F00801816180691F4E00F00800CA
:1022C0000490002230213046FEF7CBFC1B4F012248
:1022D00023213846FEF7C5FC00224FF473413846EF
:1022E000FEF7BFFC7014CDE900046946144802945F
:1022F000FEF7BEFB0125CDE9005469463046029445
:10230000FEF7B6FB3020CDE900050220CDE9024002
:1023100069463046FEF7ACFB4FF22330CDE90005AD
:102320000320CDE9024069463846FEF7A1FB05B01F
:10233000F0BD00000010024000080140000C014008
:102340000010014010B586B000241648059404948E
:102350000094019402941249039401604721C0E95A
:1023600001144FF6FE71C0E9031444618461FFF764
:10237000E8F9049404A90B480594FEF7B7FF01207F
:10238000CDE9004002940022694606480394FFF715
:102390004BF90C2269460348FFF746F906B010BD19
:1023A000002C0140F001002010B58EB000240794ED
:1023B000089409940A940B941C2168460C94FDF728
:1023C000EAFE1B481949C0E9001440F2E731C0E9B0
:1023D000024104618461FEF7B1FF4FF48050079021
:1023E00007A91348FEF7DAFF1148FFF76EFB0B94BD
:1023F0000BA90F480C94FEF779FF6020CDE900048B
:102400000294002269460A480494FFF7F6FA04226F
:1024100069460748FFF7F1FA0C2269460448FFF7BE
:10242000ECFA0348FFF7B6FA0EB010BD0004004006
:1024300030020020FEE700000248002101604160F8
:102440008160704754000020054A28B1012805D05A
:10245000022800D191607047116070475160704749
:102460005400002070470907090E002806DA00F022
:102470000F0000F1E02080F8141D704700F1E0200B
:1024800080F80014704770477047FEF7F5BB30B511
:102490008FB028216846FDF77EFE14210AA8FDF7BB
:1024A0007AFE01210804CDE90010002402940225DF
:1024B0000491CDE907504FF4E01009906846FEF70B
:1024C0007DFD0F20CDE90A056802CDE90C4002210F
:1024D0000AA80E94FEF766FC0FB030BD0D480168E7
:1024E00041F00101016041680B4A114041600168FF
:1024F0000A4A11400160016821F4802101604168AD
:1025000021F4FE0141604FF41F0181600449C003C2
:1025100008607047001002400000FFF8FFFFF6FE61
:1025200008ED00E00148FFF781B90000F00100204C
:10253000F0B502681C4B1D4D1D4E1E4F1E4C4FF03A
:10254000804C984209D0A04207D0604505D0A842EF
:1025500003D0B04201D0B84204D122F0700E4A68D4
:1025600042EA0E02984209D0A04207D0604505D049
:10257000A84203D0B04201D0B84203D122F4407542
:10258000CA682A4322F080054A692A4302608A68A1
:10259000C2620A688262984201D0A04201D10969F0
:1025A000016301214161F0BD002C014000040040A5
:1025B00000080040000C00400034014010B5012329
:1025C000046A8B409C430462036A8A40134303629B
:1025D00010BD10B5846842EA032224F47F440A4304
:1025E0002243826010BD826822F070020A4342F0EA
:1025F0000701816070470000F0B5026A22F0010215
:102600000262036A42688469124E24F073050C6802
:102610002C4323F002058B682B430D4DA84201D0BB
:10262000B04205D123F00807CB683B4323F00403F5
:10263000A84201D0B04205D14D6922F44072154341
:102640008A692A4342608461496841630362F0BD3C
:10265000002C014000340140F0B5026A22F0100263
:102660000262026A436884690D6824F4E64444EA1D
:1026700005248D6822F0200242EA05120F4D104E0B
:10268000A84201D0B04206D1CF6822F0800242EACF
:10269000071222F04002A84201D0B04207D14D6992
:1026A00023F4406343EA85038D6943EA850343606D
:1026B0008461496881630262F0BD0000002C014022
:1026C00000340140F0B5026A22F480720262026AAC
:1026D0004368C46922F4007224F073050C68124E3A
:1026E0002C438D6842EA05220E4DA84201D0B0422B
:1026F00006D1CF6822F4006242EA072222F4806207
:10270000A84201D0B04207D14D6923F4405343EAB7
:1027100005138D6943EA05134360C4614968C163C9
:102720000262F0BD002C01400034014030B5026A65
:1027300022F480520262046A4268C3690D6823F47D
:10274000E64343EA05238D6824F4005444EA053443
:10275000084DA84202D0084DA84204D14D6922F488
:10276000804242EA85124260C361496801640462A2
:1027700030BD0000002C01400034014010B5036A58
:10278000046A24F001040462846924F0F00444EA39
:10279000021423F00A020A438461026210BD0000A1
:1027A00070B5046A24F0010404628469056A124E5B
:1027B000B0420ED0114EB0420BD0B0F1804F08D0D5
:1027C0000F4EB04205D00F4EB04202D00E4EB04276
:1027D00003D124F00304144301E044F001041A0778
:1027E00024F0F00444EA126225F00A0301F00A0121
:1027F00019438261016270BD002C01400034014028
:102800000004004000080040000C004010B5036ABE
:1028100023F0100303628369046A23F4704343EADC
:10282000023224F0A00343EA01118261016210BD6B
:1028300030B5046A24F0100404628469056A24F443
:10284000407444EA022222F470444FF6FF7202EA16
:1028500003322243A02425F0A00304EA0111194306
:102860008261016230BD10B5406A0021C185C1841A
:10287000FFF788F910BD0168CA6822F49072CA6037
:1028800001684A6922F001024A61202180F83A1069
:10289000704710B590F83A10222901D0022010BDDF
:1028A0008168B1F5805F11D00169002901681FD0EE
:1028B000496801F07F03816A4A1C82620B70C18DF6
:1028C000491E0904090CC18518D02BE00269816AF0
:1028D000002A0268526805D0D2B20A80816A491C77
:1028E0008162ECE7C2F308020A80816A891CF7E77B
:1028F0004A68816A4B1C83620A70E0E70168CA6813
:1029000022F02002CA600168CA6822F48072CA609C
:1029100001684A6922F001024A61202180F83A10D8
:10292000FFF77EFA002010BD2DE9F0410446006853
:102930000169E26821F44051114301612169A068F5
:102940000843616908432168CA6841F20C639A43ED
:102950000243CA6020684169A26921F440711143B1
:1029600041614C4920686425322688423CD1FEF7FB
:10297000DFFA00EBC00101EB001061688900B0FBD9
:10298000F1F7FEF7D5FA00EBC00101EB001061682A
:10299000B0468900B0FBF1F0B0FBF5F06FF0180124
:1029A000484307EB800106EB0110B0FBF5F000F0A7
:1029B000F006FEF7BDFA00EBC00101EB0010616804
:1029C0008900B0FBF1F0B0FBF5F006EB0016FEF766
:1029D000AFFA00EBC00101EB001061688900B0FBA9
:1029E000F1F7FEF7A5FA3BE0FEF792FA00EBC00123
:1029F00001EB001061688900B0FBF1F7FEF788FA7F
:102A000000EBC00101EB00106168B0468900B0FB2B
:102A1000F1F0B0FBF5F06FF01801484307EB8001CF
:102A200006EB0110B0FBF5F000F0F006FEF770FACF
:102A300000EBC00101EB001061688900B0FBF1F010
:102A4000B0FBF5F006EB0016FEF762FA00EBC001F2
:102A500001EB001061688900B0FBF1F7FEF758FA4E
:102A600000EBC00101EB001061688900B0FBF1F0E0
:102A7000B0FBF5F06FF01801484307EB800108EB5D
:102A80000110B0FBF5F0216800F00F0030448860C1
:102A9000BDE8F0810038014090F83910212901D0BB
:102AA000022070478168B1F5805F016A0BD04A1C33
:102AB0000262026809785160C18C491E0904090C40
:102AC000C1840ED017E009880268C1F30801516083
:102AD00001690029016A02D0491C0162ECE7891CE6
:102AE000FBE70168CA6822F08002CA600068C1681A
:102AF00041F04001C160002070472DE9F041984647
:102B000017460E460446069D1DE0681C1BD02DB1DD
:102B1000FEF7ACF8A0EB0800A84214D92068C16801
:102B200021F4D071C1602068416921F00101416147
:102B3000202084F8390084F83A00002084F8380016
:102B40000320BDE8F0812068006836EA000004D068
:102B50000020B842D9D00020F3E70120F9E70000B7
:102B600010B50548FFF710F8BDE8104008220349EA
:102B70000148FFF72BB90000700200201C00002064
:102B8000FEE700000FB4084B10B504A902AA039891
:102B900000F0DEF8044602A9002000F070FC204698
:102BA00010BC5DF814FB00007F34000802E008C888
:102BB000121F08C1002AFAD170477047002001E0B7
:102BC00001C1121F002AFBD1704700002DE9FF5FF1
:102BD00082B00021DDE90430020DDDF840B003438E
:102BE00018D044F61050A2F2FF3242431514119847
:102BF00001281FD0A5EB0B00401C5FEA000A4FF034
:102C000000064E4FDFF83891B046504615D5CAF150
:102C1000000413E0119801244AA3012801D16FEAAE
:102C20000B010298119AC0E90031C0E9024206B0D6
:102C3000BDE8F09FCBF10000DFE704460021404AE9
:102C4000491842EB0450CDE9001012E0E00707D02C
:102C500032463B4640464946FDF7C8FB804689461A
:102C600032463B4610461946FDF7C0FB06460F4666
:102C70006410002CEAD1DDE90401DDE90023BAF19A
:102C8000000F06DAFDF7B2FB42464B46FDF7AEFBFE
:102C900005E0FDF787FD42464B46FDF783FD044600
:102CA0000E460022284BFDF705FE03D84FF0FF30FB
:102CB000014607E00022254B20463146FDF7EFFA9A
:102CC000FDF7DFFD102409E0002C0ADB0A220023B7
:102CD000FDF782FC039B30321A55641E50EA010254
:102CE000F2D1641C039AC4F111031444119A012A0D
:102CF00003D0012208430DD10AE0084304D000208C
:102D00004FF0110B119072E7A3EB0B056D1E0DE058
:102D10005B4504DD4FF0000205F1010504E003DA34
:102D20004FF00002A5F10105002AECD0029811999C
:102D3000C0E90231C0E9004579E700000000144015
:102D40000000F03F300000000000F0430000E03FD2
:102D50002DE9FF4F95B09B468946064600250FE2B8
:102D6000252877D100242746F84A0121059400E060
:102D7000044316F8013F203B01FA03F01042F7D15B
:102D800030782A2811D06FF02F033078A0F130026C
:102D9000092A16D8059A44F0020402EB820203EBDA
:102DA00042021044761C0590EFE759F8042B059277
:102DB000002A03DA504244F40054059044F002041F
:102DC000761C30782E2816D116F8010F44F0040432
:102DD0002A280DD06FF02F023078A0F13003092B94
:102DE00009D807EB870302EB4303C718761CF3E708
:102DF00059F8047B761C30786C280FD006DC4C2800
:102E000017D068280DD06A2814D104E0742810D097
:102E10007A280FD10DE044F400140AE044F4801441
:102E200001E044F440147278824202D104F5801427
:102E3000761C761C307866280BD013DC582877D0A7
:102E400009DC002875D04528F6D04628F4D047285C
:102E50001AD19DE118E0632835D0642879D065281F
:102E600012D195E1702873D008DC6728F1D0692869
:102E70006FD06E280DD06F2806D1B5E073282CD006
:102E8000752875D0782874D05A46179990476D1CCC
:102E900075E1C4F30250022809D003280DD0D9F8F7
:102EA000001004280DD00D6009F1040967E1D9F87C
:102EB0000010EA17C1E90052F6E7D9F800100D80BA
:102EC000F2E70D70F0E719F8041B8DF800100020F0
:102ED0008DF80100EA46012003E059F804AB4FF0F9
:102EE000FF3061074FF0000102D40DE008F101014D
:102EF0008846B9420FDA8045F8DB1AF80810002935
:102F0000F4D108E008F1010188468142FADB1AF8A1
:102F100008100029F6D105985B46A0EB080721466A
:102F20003846179A00F094FA284400EB080507E0A9
:102F30004DE029E10DE01AF8010B5A461799904728
:102F4000B8F10108F7D25B4621463846179A13E1DB
:102F500042E00A220092C4F302524FF0000A022A11
:102F600008D059F804CB032A4FEAEC710AD00DE0DF
:102F700029E02AE009F1070121F00702F2E802C185
:102F8000914609E00FFA8CFC4FEAEC71042A03D158
:102F90004FFA8CFC4FEAEC71002907DA0A4600214F
:102FA000DCF1000C61EB02012D2202E0220504D5C8
:102FB0002B228DF80420012203E0E20701D0202219
:102FC000F7E7904659E00A2102E010220DE01021B7
:102FD0004FF0000A00910BE010224FF0000A44F07D
:102FE00004040827009203E008224FF0000A009230
:102FF000C4F30252022A05D059F804CB0021032A57
:1030000008D009E009F1070121F00702F2E802C146
:10301000914605E01FFA8CFC042A01D10CF0FF0C4C
:103020004FF00008220728D5702806D0009B83F0B7
:10303000100353EA0A0305D00EE040228DF8042065
:10304000012208E05CEA010206D030228DF804205B
:103050008DF8050002229046009B83F0080353EA96
:103060000A030AD15CEA010201D1620705D53022C8
:103070008DF804204FF001087F1E582804D034A09A
:1030800003900EA802900DE036A0F9E75346604683
:10309000009AFDF7A1FA84460398825C0298401ECC
:1030A000029002705CEA0100F0D1029806A9081AA9
:1030B00000F1200A600702D524F4803400E00127E3
:1030C000574502DDA7EB0A0000E0002000EB0A01F3
:1030D000009005984144401A0590E00306D45B46F1
:1030E0002146179A059800F0B3F90544002706E039
:1030F00001A85A46C05D179990476D1C7F1C474533
:10310000F6DBE0030CD55B462146179A059800F0E4
:103110009FF9054404E030205A46179990476D1CEA
:103120000099481E00900029F5DC08E002980299F9
:103130005A460078491C0291179990476D1CBAF1C4
:103140000001AAF1010AF1DC65E100000928010093
:10315000303132333435363738396162636465660D
:1031600000000000303132333435363738394142CF
:10317000434445460000000000F058F90544761C21
:10318000307800287FF4ECAD19B02846BDE8F08F08
:10319000620700D4062709F1070222F0070CFCE8B9
:1031A0000223E14603F000485FEA080C02D00FF268
:1031B000702C0DE05FEA045C02D50FF2682C07E08A
:1031C0005FEAC47C02D00FF2602C01E0AFF2700C19
:1031D0004FF0FF3823F00043CDF850C065280CD0E5
:1031E00006DC452809D046281DD047283DD13DE0C2
:1031F000662818D067287ED138E00021112F01DB26
:10320000112000E0781CCDE9000106A90EA8FFF707
:10321000DDFCDDE90F010E9A03910021009207F118
:10322000010A04914DE04FF000400097CDE90110F4
:1032300006A90EA8FFF7CAFCDDE90F0203920E9B58
:1032400011990022DDF80CA00093049211B9791CA9
:1032500000EB010AB7EB0A0004D4C0F1FF3007F11C
:10326000010A0490AAEB0700019044E0012F00DA64
:1032700001270021112F01DD112000E03846CDE9A2
:10328000000106A90EA8FFF7A1FCDDE90F010E9AC7
:103290000391002104910092BA4621070CD40399AE
:1032A000514500DA8A46BAF1010F05DD009AAAF10C
:1032B0000101515C302908D0B84202DA10F1040F44
:1032C00006DA0121CDE9011015E0AAF10101E9E7D3
:1032D000002805DC049901440491AAEB000102E0F6
:1032E000411C514500DD8A460499401A401C01905A
:1032F0004FF000400290200704D40198504501DBB4
:10330000CDF8048000208DF84F0002980DF14F0792
:10331000B0F1004F25D02B200E9002984FF00208FC
:1033200000280CDA404202902D200E9007E00A217E
:103330000298FDF73BF93031029007F8011DB8F112
:103340000001A8F10108F2DC02980028EFD1791EF3
:103350000E980870307800F0200040F0450007F823
:10336000020D12A8C01B00F107081498007800B1E4
:10337000012000EB0A01019801EBE071059841443E
:10338000401A401E0590E00306D45B462146179A7A
:10339000059800F05DF805441498007818B15A4675
:1033A000179990476D1CE00324D55B462146179A78
:1033B000059800F04DF805441CE00498002807DB50
:1033C000DDE90301884203DD0098405C179901E0C4
:1033D000179930205A469047049805F10105401C82
:1033E00004900198401E019004D12E205A4617994E
:1033F00090476D1CBAF10001AAF1010ADDDC05E07D
:1034000017F8010B5A46179990476D1CB8F1000147
:10341000A8F10108F4DC5B462146179A0598ABE653
:103420002D0000002B000000200000002DE9F041DD
:10343000044600251E461746880404D405E0394694
:103440002020B0476D1C641EF9D52846BDE8F081E8
:103450002DE9F041044600251E469046C80301D5DB
:10346000302700E02027880404D505E0414638468F
:10347000B0476D1C641EF9D52846BDE8F0810A6886
:10348000531C0B6010707047044900220B685A628D
:1034900009684A6A8242FCD370470000F0010020AC
:1034A000FDF7F2FBFEF7F3FFFEF7EAFEE248E14923
:1034B0004FF4E13500240160C0E901540C26C460DA
:1034C000C0E904468461C461FEF7E6FBFEF73AFFFB
:1034D000FEF76AFFD848D94940300160C0E901547D
:1034E000C460C0E904468461C461FEF7D5FBD248DC
:1034F00000214038FEF706FBCF4804214038FEF794
:1035000001FBCD480C214038FEF7FCFACA480021E7
:103510008038FEF765F9C8480C218038FEF760F95D
:10352000FEF7A4FDFEF750FDFEF786FFA0464646D7
:103530004546444647460822C149BF48FEF746FC77
:10354000FEF716FD4FF4000ADFF8F8B2DFF8F89244
:103550000EE0BB48401E00780F2802D2002502244E
:1035600006E001252C460DE015B1012D10D109E032
:1035700001214846FDF770FB012809D10127641C91
:103580003D46E4B201214846FDF766FB00B900253F
:10359000E0077DD0002FFCD0AA4C1C3C6068FCF7F3
:1035A000F2FF02460B46A9A104F52E70FFF7EAFAD6
:1035B00004F52E71A1F52470FCF7F8FD04F1280143
:1035C0004FF0FF330A2201F51470FEF773FCA06878
:1035D000FCF7D9FF02460B469EA104F2C220FFF77A
:1035E000D1FA04F2C221A1F29A20FCF7DFFD04F126
:1035F00028014FF0FF330A2201F51470FEF75AFC40
:103600005C46DBF80000FCF7BEFF02468A480B462A
:1036100092A1A830FFF7B6FA8749A831A1F52E701C
:10362000FCF7C4FD87494FF0FF330C310A2201F546
:103630001470FEF73FFC6068FCF7A5FF02467E4869
:103640000B4688A1C630FFF79DFA7B49C631A1F22F
:10365000D620FCF7ABFD7B494FF0FF330C310A223B
:1036600001F51470FEF726FCA068FCF78CFF0246FB
:1036700071480B467DA1E430FFF784FA6E49E431CE
:10368000A1F53D70FCF792FD4FF0FF330A2200E0F8
:10369000B4E06C490C3101F51470FEF70BFC2068A6
:1036A00050450DDB00224FF480517248FDF7D9FAE6
:1036B000012251036F48FDF7D4FA6F4920680CE0EE
:1036C000012211036B48FDF7CCFA00224FF40051A0
:1036D0006848FDF7C6FA69492068FCF7A2FD024672
:1036E00055480C21403800F0CBF8606850450DDBA0
:1036F00000224FF480415F48FDF7B3FA0122D10365
:103700005C48FDF7AEFA5C4960680CE00122910369
:103710005848FDF7A6FA00224FF400415548FDF73E
:10372000A0FA56496068FCF77CFD02464248042135
:10373000403800F0A5F8A06850450DDB00224FF49A
:1037400080714C48FDF78DFA012251024948FDF77E
:1037500088FA4949A0680CE0012211024548FDF7AA
:1037600080FA00224FF400714248FDF77AFA43498B
:10377000A068FCF756FD02462F480021403800F0B3
:103780007FF80A20B6FBF0F100FB116090BB03202C
:1037900098FBF0F200FB128161B198FBF0F200FBA4
:1037A000128101290FD098FBF0F200FB1280022851
:1037B00012D01CE02F4C012203212046FDF751FAC4
:1037C0000022202110E02B4C012222212046FDF76F
:1037D00048FA0022012107E0264C0122212120463F
:1037E000FDF73FFA002202212046FDF73AFA0026B3
:1037F00008F10108761CF6B2012411E00E480022FF
:103800000C21403800F03CF80B48002204214038DD
:1038100000F036F8084800221146403800F030F831
:103820003220FDF713F9FEF7A3FB002F3FF49CAE07
:103830008FE6000000380140700200200048004080
:103840001C000020540000200008014041252E33B8
:103850006600000042252E336600000043252E330B
:103860006600000044252E336600000045252E33F7
:1038700066000000000C01400000C8420000C8C201
:1038800070B50446C06888B016460D46401CFCF76B
:1038900036FE3146FCF793FCFCF743FE6021CDE990
:1038A00000100020029004902A4669462046FEF748
:1038B000A4F829462046FEF725F908B070BD00009F
:1038C00000000000000001020304060708090000D0
:1038D0000000010203040000F83800080000002086
:1038E00038000000AC2B00083039000838000020F8
:1038F00040070000BC2B0008000000000000000092
:1039000000000000000000000000000000000000B7
:103910000000323200000000000000000000000043
:1039200001000000100000000000000000A24A0496
:0400000508000131BD
:00000001FF
