:020000040800F2
:10000000C80A0020450100086F1F00086D1900088C
:100010006D1F0008A3080008A925000800000000C3
:10002000000000000000000000000000E5210008C2
:10003000A508000800000000E91F0008E7210008EB
:100040005F0100085F0100085F0100085F01000810
:100050005F0100085F0100085F0100085F01000800
:100060005F010008B9080008110900085F010008D5
:100070005F0100085F0100085F0100085F010008E0
:100080005F0100085F0100085F0100085F010008D0
:100090005F0100085F0100085F0100083D090008DA
:1000A0005F0100085F0100085F0100085F010008B0
:1000B0005F0100085F0100085F0100085F010008A0
:1000C0005F0100085F0100085F0100085F01000890
:1000D0005F0100087D2500085F01000889250008F0
:1000E0005F0100085F0100085F0100085F01000870
:1000F0005F0100085F0100085F0100085F01000860
:100100005F0100085F0100085F0100085F0100084F
:100110005F0100085F0100085F0100085F0100083F
:100120005F0100085F0100085F0100085F0100082F
:10013000DFF80CD000F082FB00480047112F0008C8
:10014000C80A00200648804706480047FEE7FEE749
:10015000FEE7FEE7FEE7FEE7FEE7FEE7FEE7FEE777
:100160003922000831010008202A04DB203A21FA54
:1001700002F00021704721FA02F3D040C2F12002C0
:100180009140084319467047D2B201E000F8012BB4
:10019000491EFBD270470022F6E710B513460A4607
:1001A00004461946FFF7F0FF204610BDF0B480EA80
:1001B0000102D40F4200B2EB410F02D202460846C0
:1001C00011464A0042D0C30DDDB2C1F3C752AD1A89
:1001D000202D35DAC1F3160141F4000204B1524278
:1001E000C5F1200602FA06F12A411044B3EBD05FB4
:1001F00023D0C4B1012DA0EBC35009DCF0BC4FF0FB
:10020000004202EAC352DBB200F5000000F0B4B9CC
:10021000400000F1807000EBC350A0F1807040EA14
:10022000D170490009E0490841EAC071A0EBC35010
:1002300000F50000400800EBC350F0BC00F093B99B
:100240006142012202EB4101001BF6E7F0BC70475E
:1002500081F00041AAE780F00040A7E72DE9FE4FBA
:1002600081EA030404F0004421F0004100944FF0BF
:10027000000B23F0004350EA01045ED052EA03046D
:100280005BD0C3F30A54C1F30A552C44A4F2F334EF
:100290000194A0FB0254C1F3130141F48011C3F394
:1002A000130343F4801301FB024400FB034E840A52
:1002B000970A44EA815447EA8357A4FB07680295EA
:1002C0008D0A05FB07854FEA932C04FB0C54270588
:1002D000029D4FEA065847EA1637B5EB08056EEB64
:1002E000070C870E920E47EA811742EA8312A7FB9A
:1002F0000201B6EB0B0164EB00042B0D43EA0C3357
:100300005E1844EB1C50DA465146E7FB0201C5F388
:1003100013044FEA0B3343EA14534FEA0432019CAF
:1003200043EA0603A4F10C040294009CCDE900B456
:1003300000F05FF903B0BDE8F08F00200146F9E757
:100340002DE9F04D81EA030404F0004B21F0004553
:1003500014464FF0000A23F0004150EA050220D075
:1003600054EA01021DD0C5F30A570246C5F3130330
:10037000C1F31300C1F30A5640F4801543F480130F
:10038000A7EB0608101BD64608F2FD3873EB0500F4
:1003900002D308F1010801E092185B41B8F1000FA7
:1003A00003DA00200146BDE8F08D00204FF48011F3
:1003B000064684460EE0171B73EB050705D3121B98
:1003C00063EB050306434CEA010C49084FEA300091
:1003D00092185B4150EA0107EDD152EA030012D0B6
:1003E00082EA040083EA0501084305D0101BAB41F3
:1003F00006D20122002306E000224FF0004302E073
:100400006FF0010253101AEB06004CEB085110EB91
:100410000A0041EB0B01BDE8F04D00F0DBB896237C
:100420000022114600F0A8B80EB5C10F80EAE070B6
:100430000844CA07002140F233438DE80E000A4603
:100440000B4600F0D6F803B000BD0EB540F23341C4
:1004500002910021CDE900110A460B4600F0C9F8CF
:1004600003B000BD00F0004230F000400AD0C10DE2
:1004700001F56071C0F3160042EA0151C20840075D
:100480001143704700200146704701F0004330B42B
:1004900021F0004150EA010206D00A0DA2F5607277
:1004A000C1F31301002A02DC30BC00207047440F66
:1004B00044EAC104C100E01830BC00EBC25000F0B7
:1004C00052B80000002801DBC0F10040002901DB28
:1004D000C1F100418842704730B50B46014600200B
:1004E0002022012409E021FA02F59D4205D303FAF6
:1004F00002F5491B04FA02F52844151EA2F1010277
:10050000F1DC30BD2DE9F05F0546002092469B46A8
:1005100088460646814640241BE028464146474619
:100520002246FFF721FE53465A46C01A914110D386
:1005300011461846224600F093F92D1A67EB010880
:100540004F4622460120002100F08AF917EB0009EE
:100550004E41201EA4F10104DFDC484631462A4604
:100560004346BDE8F09F0029A8BF7047401C4900E2
:1005700008BF20F00100704710B4B0FA80FC00FA08
:100580000CF050EA010404BF10BC704749B1CCF133
:10059000200421FA04F411FA0CF118BF01212143BF
:1005A0000843A3EB0C01CB1D4FEA00614FEA10207A
:1005B00042BF002010BC704700EBC350104400291C
:1005C000A4BF10BC7047401C490008BF20F00100C8
:1005D00010BC704710B5141E73F1000408DA401CFB
:1005E00041F1000192185B411A4301D120F0010052
:1005F00010BD2DE9F04D92469B4611B1B1FA81F242
:1006000002E0B0FA80F22032904600F029F9044668
:100610000F4640EA0A0041EA0B0153465A46084396
:1006200013D0114653EA010019D0C8F140025046D8
:10063000FFF79AFD05460E4650465946424600F0E1
:100640000FF9084305D0012004E020463946BDE8F3
:10065000F08D0020054346EAE0762C4337430A98A4
:100660006305E40AA0EB08000022FD0A44EA4754AF
:100670000A3002D500200146E9E701051019694159
:10068000DDE9084500196941BDE8F04DA2E72DE913
:10069000FE4F804681EA0300C00F0C46009021F017
:1006A000004123F00045B8EB0200A94105D24046C5
:1006B000214690461C460B46024623F0004010435C
:1006C00047D0270DC7F30A00C3F30A510290401A1E
:1006D000019040286BDAC3F3130040F4801B0098AC
:1006E000924620B10023D2EB030A63EB0B0B019877
:1006F0005946C0F14002504600F0B2F806460D4699
:1007000050465946019A00F0BAF810EB08006141D2
:10071000002487EA115284EAE7731A4340D0009A12
:1007200062B3019A012A4FEA075215DC001B61EB04
:1007300002014FF0004202EA0752CDE90042001CDC
:1007400041F5801132462B46FFF753FF03B0BDE859
:10075000F08F40462146F9E7001B61EB0201001CC7
:1007600041F5801300185B412018A2F5001747EBF4
:10077000030140EAD570B6196D4111E06D084FEAEA
:10078000360645EAC0754FEA0752001B61EB0201CD
:10079000001C41F5801149084FEA30000019514111
:1007A00032462B4603B0BDE8F04FFFF713BF009869
:1007B000012240000023D0EB020263EBE0730098BB
:1007C00021464FEAE074B8EB000061EB0401E9E771
:1007D00083F000435BE781F0004158E7C1F30A5220
:1007E000C1F3130140F2FF3341F480119A4202DA5F
:1007F00000200146704740F233439A42A2F233424E
:1008000002DC5242FFF7B0BC00F02AB830B5041E3B
:1008100071F1000404DB4FF00044404264EB01013D
:10082000141E73F1000405DB1C464FF000435242D6
:1008300063EB0403994208BF904230BD064C074D5C
:1008400006E0E06840F0010394E8070098471034A0
:10085000AC42F6D3FFF770FCC4370008E437000859
:10086000202A04DB203A00FA02F100207047914070
:10087000C2F1200320FA03F3194390407047202A65
:1008800006DBCB17203A41FA02F043EAE07306E0B8
:1008900041FA02F3D040C2F12002914008431946C8
:1008A0007047FEE7704701B5009801E0401E0090D8
:1008B0000028FBD108BD000070B5114A1068000780
:1008C00019D510480821037813B1012B0AD00EE086
:1008D0000D4C102363610D4D2960012606702960BF
:1008E000236104E0094B1B1D196002230370116092
:1008F000082000F0BFF9BDE87040082000F0BCB946
:10090000140401409B00002000100140101401401D
:1009100010B5084C2068C00606D5074802F030FC28
:100920001020206000F0A6F9BDE81040102000F073
:10093000A3B90000140401405806002010B50E4C65
:100940002068800606D50D4802F01AFC20202060A1
:1009500000F090F92068400606D5094802F010FC26
:100960004020206000F086F9202000F085F9BDE8E5
:100970001040402000F080B9140401406C060020B3
:100980008006002010B50170044600200349606015
:10099000C4E9020100F07AFA206110BD000048436A
:1009A00030B5B3F5804F05D06FF0704140F822109C
:1009B000002030BD8C690B688D6823434C688989A1
:1009C000240144EA0524234343EA014150F822303C
:1009D000014C23401943E9E70000F0CF30B50A6825
:1009E00050F8223023F0010340F822308C68204B6D
:1009F0004A68082C1ED02243D1E903452C432243E8
:100A00004C6922438C692243CC6922430C6A2243FD
:100A10004C6A22438C6A2243CC6A22430C6B0968DD
:100A2000224350F821401C4052EA040240F82120A1
:100A3000002030BDD1E9034542F008022C43224397
:100A40004C6922438C692243CC6922430C6A2243BD
:100A50004C6A22438C6A2243CC6A22430C6B09689D
:100A6000224350F821401C40224342F04002DDE77F
:100A70008100F7FF30B5D1E9003443EA04138C68F4
:100A80008D89240244EA054423430C8A094D00EB76
:100A9000820005EB045423430C7D6D0105EB0464D7
:100AA000896923430B43416801F040410B43436094
:100AB000002030BD0000F0FF2DE9F05F90F821101C
:100AC0000024022903D004218163012485E0016808
:100AD0000A6822F00E020A6001680A6822F0010228
:100AE0000A603F4E3E4FB215DFF8F4C0DFF8F090D9
:100AF000DFF8ECA0DFF8E8B0DFF8E4E00168783F69
:100B000013011502ACF1640CA9F15009AAF13C0AD9
:100B1000ABF1280BAEF1140E4FF48018B14227D977
:100B2000B9420ED0614512D049451DD0514518D06B
:100B3000594518D0714501D1424615E0294EB142C0
:100B400001D1012210E0274E1436B14201D110220A
:100B50000AE0244E2836B14206D0224A3C32914265
:100B600001D11A4600E02A461E49091F0A602BE0FF
:100B7000B94213D0614517D0494522D051451DD007
:100B800059451DD0714501D142461AE0B14202D10A
:100B90004FF0807215E0134EB14201D1012210E0F6
:100BA000104E1436B14201D110220AE00D4E283603
:100BB000B14206D00B4A3C32914201D11A4600E0C4
:100BC0002A46074980394A60012180F82110002116
:100BD00080F82010416B01B188472046BDE8F09FA6
:100BE000800002400804024070B5044600F04EF94F
:100BF0000546601C02D004480078044400F046F921
:100C0000401BA042FAD370BDA800002030B585B0CB
:100C10000020009001900290039012480168002982
:100C20001ED1012101601048416941F48071416188
:100C30004069022400F4807004904FF68070CDE982
:100C40000004032569460395084800F021F84CF696
:100C5000B370CDE9000469460395054800F018F823
:100C600005B030BDA0000020001002400018014077
:100C70000014014070470000044910B50A680242A0
:100C800002D00860FFF7F6FF10BD00001404014019
:100C90002DE9F84FDFF8B8A100220AF1040B144641
:100CA00001274FF00F090BF1040E00BF0B6807FA84
:100CB00004F52B40AB4274D1DFF898C14E68A6EB27
:100CC0000C0866452BD00DDC032E34D005DC36B382
:100CD000012E19D0022E2FD11BE0112E16D0122E6C
:100CE0002AD119E0B8F5881F19D006DCB8F5803F85
:100CF00015D0B8F5801F1FD111E0B8F5001F0ED038
:100D0000B8F5041F18D10AE0CA6815E0CA68121DB8
:100D100012E0CA6808320FE0CA680C320CE08A6838
:100D20002AB1012A4FF0080203D0456104E00422F1
:100D300002E0056100E00022FF2B01D8064601E039
:100D400000F104064FEA840501D9A5F12005D6F883
:100D500000C009FA05F82CEA080C02FA05F54CEA7D
:100D6000050CC6F800C04D68ED006AD53A4DAE6975
:100D700046F00106AE61AD6924F0030605F00105F9
:100D80000095364D06EB050CDCF80850A6074FEA37
:100D9000167809FA08F6B543314EB04202D1002662
:100DA0001AE04EE02F4EB04201D1012614E02E4E43
:100DB000B04201D102260FE02C4EB04201D10326F1
:100DC0000AE02B4EB04201D1042605E0294EB04284
:100DD00001D1052600E0062606FA08F62E43CCF8D7
:100DE00008604D68DAF80060ED03554601D51E43F2
:100DF00000E09E432E604D68AD0305D5DBF8006032
:100E00001E43CBF8006004E0DBF800509D43CBF8B4
:100E100000504D68DEF80060ED02754601D51E43B6
:100E200000E09E432E604D68AD0205D5084D0C359F
:100E30002E681E432E6004E0054E0C3635689D4337
:100E40003560641C102CFFF431AFBDE8F88F000052
:100E50000004014000001110001002400000014099
:100E600000080140000C0140001001400014014046
:100E700000180140001C01408068084000D001209B
:100E800070470AB1016170470904FBE701488068B7
:100E900070470000A80000200248816802781144D1
:100EA00081607047A8000020074810B5016841F034
:100EB00010010160032000F073F8002000F006F834
:100EC00000F024F8002010BD0020024070B50D4D48
:100ED00004464FF47A712878B1FBF0F00A490968AA
:100EE000B1FBF0F000F029FB48B9102C07D200222A
:100EF0002146501E00F034F800206C6070BD0120C7
:100F000070BD0000A8000020B40000200C4808B507
:100F1000816941F001018161816901F00101009164
:100F2000C16941F08051C161C06900F080500090FA
:100F30000448416821F0E06141F00071416008BD62
:100F4000001002400000014000F01F02012191400A
:100F50004009800000F1E020C0F800117047000057
:100F6000F0B40E4B1B680C46C3F30223C3F1070514
:100F7000042D00D90425191D072901D2002300E002
:100F8000DB1E012606FA05F1491E214099409E40CC
:100F9000761E16403143F0BC00F0EABF0CED00E0D5
:100FA000064900F0070208684FF6FF03184040EAC0
:100FB0000220034A10430860704700000CED00E077
:100FC0000000FA052DE9F047DFF8548105460E468A
:100FD000D8F8000000F00700B0420CD2D8F800109A
:100FE00021F007013143C8F80010D8F8000000F0E4
:100FF0000700B0426FD128684A4C810712D54007DC
:1010000003D5606840F4E06060602878000703D58D
:10101000606840F4605060606068A96820F0F0008B
:10102000084360602878C00744D06868012816D05B
:101030002168022816D0890700294CDA616821F05E
:10104000030101436160FFF721FF6968074641F230
:10105000883001290ED00229814618D026E0216867
:101060008903E9E78901E7E7FFF710FFC11B49455D
:1010700001D918E081466068C0F381000128F3D1EE
:1010800018E000BFFFF702FFC11B49450BD860689D
:10109000C0F381000228F5D10CE000BFFFF7F6FE97
:1010A000C11B494502D90320BDE8F087606810F0F4
:1010B0000C0FF3D1D8F80010404601F00701B142FF
:1010C0000BD9016821F0070131430160006800F08D
:1010D0000700B04201D00120E6E72878400705D597
:1010E0006068E96820F4E0600843606028780007E1
:1010F00006D56068296920F4605040EAC10060604C
:1011000000F036F86168084AC1F30311515CC84029
:10111000064908600020FFF7D9FE0020C4E7000060
:101120000020024000100240AC370008B40000204C
:101130000448054900684968044AC1F30221515C2A
:10114000C8407047B400002000100240BC370008BF
:101150000448054900684968044AC1F3C221515C4A
:10116000C8407047B400002000100240BC3700089F
:1011700012A185B00FC98DE80F0014A0144A0068B1
:1011800004905168134801F00C03042B10D0082B75
:101190000ED1C1F38343C9031DF803000AD551687A
:1011A00004AAC1F34041515C0A4A5043B0FBF1F03C
:1011B00005B0704708494843FAE7000002030405F8
:1011C000060708090A0B0C0D0E0F10100102000093
:1011D0000010024000127A0000093D002DE9F84F8E
:1011E00004460078B94DC00748D06868C0F3810054
:1011F000012807D06868C0F38100022809D1686817
:10120000C00306D52868800338D5606800286FD0F1
:1012100034E06068B0F5803F0BD010B1B0F5A02F7E
:1012200011D0286820F480302860286820F48020BD
:1012300002E0286840F480302860606888B1FFF7D9
:1012400025FE064609E0286840F480202860F0E783
:10125000FFF71CFE801B642875D828688003F7D52B
:101260000CE0FFF713FE064605E000BFFFF70EFE99
:10127000801B6428F0D828688003F7D42078944E27
:1012800080074FF001094FF000083BD5686810F067
:101290000C0F07D06868C0F38100022809D1686884
:1012A000C00306D42868800714D5206901281FD1FF
:1012B00010E02069B0B1C6F80090FFF7E7FD0746DF
:1012C00005E000BFFFF7E2FDC01B0228C4D8286874
:1012D0008007F7D52868616920F0F80040EAC1006E
:1012E00028600FE0C6F80080FFF7D0FD074606E053
:1012F000E9E000BFFFF7CAFDC01B022823D8286819
:101300008007F7D4207800072CD57248A169D9B19D
:10131000C0F80090FFF7BAFD074604E0FFF7B6FDFE
:10132000C01B02280FD8686A8007F7D56A484FF4B7
:10133000FA510068B0FBF1F0009000BF0098411E28
:101340000091FAD20EE080E0C0F80080FFF79EFD29
:10135000074604E0FFF79AFDC01B022875D8686AAB
:101360008007F7D42078400760D5E8690027C000DF
:1013700008D4E86940F08050E861E869012700F08E
:101380008050009055480168C90513D40168834610
:1013900041F480710160FFF779FD824606E000BFED
:1013A000FFF774FDA0EB0A0064284ED8DBF80000BC
:1013B000C005F5D5E06801280AD008B1052813D08A
:1013C000286A20F001002862286A20F0040002E068
:1013D000286A40F001002862E06841F2883B98B139
:1013E000FFF754FD82460BE0286A40F004002862B3
:1013F000EEE700BFFFF74AFDA0EB0A0159455AD8B6
:10140000286A8007F6D50CE0FFF740FD824605E02C
:10141000FFF73CFDA0EB0A0159454CD8286A80072C
:10142000F6D41FB1E86920F08050E861E06988B324
:101430006968C1F38101022945D00228C6F860809D
:1014400004D0FFF723FD044638E034E0FFF71EFD2B
:10145000074604E0FFF71AFDC01B02282BD82868B6
:101460008001F7D4206AB0F5803F05D16868A16893
:1014700020F4003008436860D4E908010843696833
:1014800021F4741108436860C6F86090FFF7FEFC11
:10149000044606E015E000BFFFF7F8FC001B022839
:1014A00009D828688001F7D50BE000BFFFF7EEFCF4
:1014B000001B022802D90320BDE8F88F28688001AC
:1014C000F4D40020F8E70120F6E700000010024005
:1014D0000000424280044242B400002000700040FC
:1014E00070B515460E46040003D094F83D0010B1C7
:1014F00007E0012070BD002084F83C00204600F089
:101500001AF804F108012068FFF768FA3146A2686A
:101510002068FFF7AFFAD4E901022946236BFFF7F1
:101520003FFAA168206850F8212042F0010240F8FB
:101530002120002070BDFFF769BB10B5401EB0F13F
:10154000807F01D3012010BD4FF0E02460610F21A6
:10155000601700F00DFD0020A06107202061002031
:1015600010BD704770B5026804461068D1685369B1
:1015700010F00F0F50D003F0010501F490763543C1
:101580005DD0C20705D0CA0503D5E26B42F0010267
:10159000E263420705D5DA0703D0E26B42F00202AC
:1015A000E263820705D5DA0703D0E26B42F004025A
:1015B000E263020705D5DA0703D0E26B42F00802C6
:1015C000E263E26B002A33D0800604D5880602D598
:1015D000204600F06BFE20684069E16BC0F380108C
:1015E000090700D428B3204600F052FE2068416964
:1015F00049061AD5416921F040014161606BA0B1F3
:101600001B494163606BFFF757FA002810D0606BED
:10161000416BBDE870400847830610D58B060ED598
:101620002046BDE8704000F041BE2046FFF799FF1C
:1016300070BD2046FFF795FF0020E06370BD0306F4
:1016400006D50B0604D52046BDE8704000F032BF39
:101650004006F3D54806F1D5D168204621F0400177
:10166000D160202184F8391000F07FF970BD0000AE
:101670008122000870B5040004D094F839000025D8
:1016800010B106E0012070BD84F83850204600F00B
:1016900023F8242084F839002068C16821F400511F
:1016A000C160204600F04EFE2068016921F490419F
:1016B00001612068416921F02A0141612068C16807
:1016C00041F40051C160E563202084F8390084F8BA
:1016D0003A00002070BD000070B586B00024009470
:1016E00001940294039403683248314E022103228C
:1016F0000515B34226D1836943F48043836183692E
:1017000003F480430493836943F004038361806995
:10171000294E00F0040004900802CDE90001039274
:1017200069463046FFF7B4FACDE9005469463046C1
:101730000294FFF7ADFA002211462520FFF710FCB6
:10174000252031E01D4EB34230D1C36943F48023DC
:10175000C361C36903F480230493836943F01003D6
:1017600083618069CDE9005100F01000CDE90320CC
:10177000134D69462846FFF78BFAE814CDE90004BB
:10178000694628460294FFF783FA0E48416821F023
:10179000300141F0E06141F010014160002211464A
:1017A0002720FFF7DDFB2720FFF7CEFB06B070BD3B
:1017B000003801400010024000080140004800408D
:1017C000001001400000014090F83A30202B22D157
:1017D000F9B1F2B190F83830012B1CD081628285CA
:1017E000C2850021C163222280F83A2080F8381097
:1017F0000168CA6842F48072CA6001684A6942F0AE
:1018000001024A610068C16841F02001C160002006
:101810007047012070470220704700001E48017881
:10182000412911D0422919D0432921D0442929D056
:10183000452908D1194A002143185B785354491CA3
:10184000C9B20929F8D37047154A002143185B78BB
:101850005354491CC9B20929F8D37047114A0021D1
:1018600043185B785354491CC9B20929F8D370470F
:101870000D4A002143185B785354491CC9B2092909
:10188000F8D37047094A002143185B785354491C28
:10189000C9B20929F8D3704730060020B8060020E5
:1018A000940600209D060020A6060020AF0600201A
:1018B0002DE9F843044690F839001F4616460D46B8
:1018C000202850D1A5B19EB194F8380001284AD003
:1018D000012084F838004FF00008C4F83C80212033
:1018E00084F83900FFF7D2FAA6848146E68426E020
:1018F0000120BDE8F883E08C401EE084A0684B46E0
:10190000B0F5805F4FF000024FF080012046009755
:1019100003D000F000FEE8B90DE000F0FCFDC8B90E
:1019200028882168C0F308004860206908B16D1C50
:1019300005E0AD1C03E0216815F8010B4860E08C60
:101940000028D8D14B46002240212046009700F0C5
:10195000E2FD08B10320CCE7202084F8390084F8A8
:1019600038800020C5E70220C3E77047FEE700008B
:101970002DE9F047DFF8ACC0814601208CF800006B
:1019800002208CF8B1040020274B284D20224FF470
:10199000A07700215A612C681A6104F47F465A61CD
:1019A0002C681A61C4F30724344340EA0106760721
:1019B00022D1C4F345164FEAD42806EB860604F07C
:1019C0001F0406EB48063444E408012C0DD0022C19
:1019D0000BD0032C09D0042C07D0052C05D0062CE5
:1019E00003D0072C01D0082C00D1002400EB800686
:1019F00006EBD10666447470491C89B2B942C9D35A
:101A0000401C80B2F028C4D34FF0FF3340F2B24202
:101A100004494846FFF74CFFBDE8F0474FF4FA6031
:101A2000FFF7E2B8B800002000100140080C0140A8
:101A3000044B4FF4805108B1002200E00122184607
:101A4000FFF71FBA0014014070B51D461446049EEE
:101A500000F072F804FB05F03146BDE8704000F07C
:101A600049B8000070B5203AD4B21023082200F023
:101A700063F82C20C10608800C490D4B01EB0415BE
:101A800000204FF6FF742A5C0021D60702D01F26E3
:101A90001E8000E01C80491C5208C9B20829F4D3FA
:101AA000401CC0B21028EED370BD0000BC3100084D
:101AB00000000260F0B516460D4604464FF4A077CC
:101AC00014E000BF04F10800F02802D9002410350A
:101AD000ADB205F11000B84201D9002425462946CF
:101AE0002046FFF7BFFF0834A4B2761C3278002AE4
:101AF000E8D1F0BD10B500222C23DC062380034B77
:101B000001E01980521C8242FBD310BD000002602C
:101B100008B50120FFF78CFF00F0EAF800F02CF880
:101B20004FF6FF70002100904FF4A073F02208469A
:101B3000FFF78AFF08BD000070B54FF0C0452A24AA
:101B40002C800C4C060A2680C6B226801044401E0B
:101B5000020A2280C0B220802B202880080A208020
:101B6000C8B22080C818401E010A2180C0B220805F
:101B700070BD00000000026000B54FF0C041CF20F2
:101B8000088059480022028081220280302202808F
:101B9000ED220A8064220280032202801222028047
:101BA00081220280E8220A8085220280102202809F
:101BB00078220280CB220A80392202802C220280E5
:101BC000002202803422028002220280F7220A8050
:101BD00020220280EA220A80002202800280B122B2
:101BE0000A80002202801B220280B6220A800A227A
:101BF0000280A2220280C0220A8035220280C122F5
:101C00000A8011220280C5220A80452202800280B9
:101C1000C7220A80A2220280F2220A8000220280C9
:101C200026220A8001220280E0220A800F220280FE
:101C300026220280242202800B2202800E220280B1
:101C40000922028054220280A822028046220280B9
:101C50000C22028017220280092202800F220280B9
:101C60000722028000220280E1220A8000220280F4
:101C7000192202801B22028004220280102202808C
:101C8000072202802A220280472202803922028013
:101C90000322028006220280028030220280382243
:101CA00002800F22028036220A80C82202802A2265
:101CB0000A800022028002800280EF2202802B2212
:101CC0000A80002202800280012202803F220280DC
:101CD0003A220A8055220280112008800348FEF72C
:101CE000E2FD2920088000BD00000260FCBF020068
:101CF00070B50A4C002202212046FFF7C2F8084DB9
:101D00002846FEF7D0FD012202212046FFF7B9F850
:101D10002846BDE87040FEF7C6BD0000001801402F
:101D2000FCBF020000B587B01C216846FEF733FAFD
:101D300015484FF0204110220160144941600021F4
:101D40008160C160C0E904128161C1611302016256
:101D5000C0E90913C1620163416381630F20FF235E
:101D60000090CDE90103CDE903021120CDE9050181
:101D7000002269460448FFF7B3FB0548C16941F4F6
:101D80008061C16107B000BDEC050020040100A026
:101D9000000001402DE9F04F85B000246B4800940D
:101DA000019402940394816941F010018161816979
:101DB00001F010010491816941F0040181618169A0
:101DC00001F004010491816941F008018161816998
:101DD00001F008010491816941F04001816181694C
:101DE00001F040010491816941F020018161806925
:101DF000DFF85C8100F02000049000220C214046B6
:101E0000FFF73FF8DFF84CB10022F0215846FFF70A
:101E100038F8DFF84491012223214846FFF731F8D2
:101E2000DFF838A141F20807002239465046FFF793
:101E300028F8002202214A48FFF723F84FF4005007
:101E4000CDE90004694658460294FEF721FF0820B8
:101E500000904448CDE9010469465846FEF718FF52
:101E60008120CDE90004694640460294FEF710FF48
:101E70000C200126CDE90006032569464046CDE940
:101E80000245FEF705FF702000903748CDE90104B8
:101E900069464046FEF7FCFE3020CDE90006694663
:101EA0005846CDE90245FEF7F3FE2320CDE90006B2
:101EB00069464846CDE90245FEF7EAFE4FF6C07096
:101EC000CDE90004694648460294FEF7E1FECDE9FB
:101ED000007669465046CDE90245FEF7D9FE40201E
:101EE00011274FF0020803958DE881016946584695
:101EF000FEF7CEFE8020CDE9000769465846CDE9C1
:101F00000245FEF7C5FECDE9008669461448CDE9D5
:101F10000245FEF7BDFE002211460920FFF720F81A
:101F20000920FFF711F8002211460A20FFF718F8E0
:101F30000A20FFF709F8002211461720FFF710F8D2
:101F40001720FFF701F805B0BDE8F08F0010024040
:101F50000008014000100140000C01400014014045
:101F6000001801400000211000001110FEE770472A
:101F70000907090E002806DA00F00F0000F1E02042
:101F800080F8141D704700F1E02080F800147047BD
:101F9000F8B500248DF800408021122000F0FCF8F4
:101FA00000280BD00B220121684600F01FF8002802
:101FB00004D09DF80000212801D00020F8BD094D73
:101FC0006E1E0AE005EB4400417815F8140000F09D
:101FD000E3F80028F2D0641CA4B230788442F1D334
:101FE0000120F8BD01000020704700002DE9F047F6
:101FF00014468846814600F081F800281DD0422012
:1020000000F05AF800F0AEF8A0B1204600F054F805
:1020100000F0A8F800F092F800F070F800280CD05A
:10202000432000F049F800F09DF8224C4FF0800A60
:10203000402698BB00F082F80020BDE8F08700251C
:10204000C4F810A007276806050E666100F0C3F803
:10205000266100F0C0F880212046FEF70DFF08B190
:1020600045F001057F1EFFB2EDD2666189F8005090
:10207000B8F1010F666118D000F0ADF8C4F814A0F3
:1020800000F0A9F8266100F0A6F8666100F0A3F858
:10209000A8F1010009F101091FFA80F8B8F1000F59
:1020A000CDD100F04BF80120C7E700F094F8C4F858
:1020B00010A0E5E7001001402DE9F0410825074692
:1020C0004FF0800840260C4C0FE000BF00F083F872
:1020D0003806404601D5206100E060617806070EB1
:1020E00000F079F8266100F076F86D1EEDB26661B9
:1020F000ECD2BDE8F08100000010014070B50E4C3C
:10210000802525614020206100F065F8802120466F
:10211000FEF7B2FE002808D0656100F05CF880216F
:102120002046FEF7A9FE08B1002070BD656100F0F1
:1021300052F8012070BD00000010014070B5084C3D
:102140004025656100F047F88026666100F043F89D
:10215000256100F040F82661BDE8704000F03BB812
:102160000010014070B50B4D40246C6100F033F855
:102170008020286100F02FF82C6100F02CF88021DD
:102180002846FEF779FE6C6108B1002070BD012081
:1021900070BD00000010014070B50D460446FFF709
:1021A000ADFF002812D04220FFF786FFFFF7DAFFCD
:1021B00068B1E0B2FFF780FFFFF7D4FF2846FFF7D2
:1021C0007BFFFFF7CFFFFFF7B9FF012070BDFFF7DF
:1021D000B5FF002070BD4FF4C870401E0004000C15
:1021E000FBD170477047FEF757BE30B58FB028213E
:1021F0006846FDF7D0FF14210AA8FDF7CCFF0121A6
:102200000804CDE900100024029402250491CDE9D0
:1022100007504FF4E01009906846FEF7DFFF0F20EB
:10222000CDE90A056802CDE90C4002210AA80E9406
:10223000FEF7C8FE0FB030BD0D48016841F0010146
:10224000016041680B4A1140416001680A4A11402F
:102250000160016821F480210160416821F4FE01E0
:1022600041604FF41F0181600449C003086070475A
:10227000001002400000FFF8FFFFF6FE08ED00E04E
:1022800010B5406A0021C185C184FFF76AF910BD0D
:102290000168CA6822F49072CA6001684A6922F033
:1022A00001024A61202180F83A10704710B590F879
:1022B0003A10222901D0022010BD8168B1F5805F5B
:1022C00011D00169002901681FD0496801F07F031E
:1022D000816A4A1C82620B70C18D491E0904090C77
:1022E000C18518D02BE00269816A002A0268526811
:1022F00005D0D2B20A80816A491C8162ECE7C2F340
:1023000008020A80816A891CF7E74A68816A4B1CC7
:1023100083620A70E0E70168CA6822F02002CA609E
:102320000168CA6822F48072CA6001684A6922F0B2
:1023300001024A61202180F83A10FFF76FFA00206D
:1023400010BD00002DE9F041044600680169E26813
:1023500021F44051114301612169A068084361697A
:1023600008432168CA6841F20C639A430243CA6079
:1023700020684169A26921F44071114341614C49CF
:1023800020686425322688423CD1FEF7E1FE00EB4E
:10239000C00101EB001061688900B0FBF1F7FEF7A6
:1023A000D7FE00EBC00101EB00106168B046890068
:1023B000B0FBF1F0B0FBF5F06FF01801484307EB0C
:1023C000800106EB0110B0FBF5F000F0F006FEF71F
:1023D000BFFE00EBC00101EB001061688900B0FB9B
:1023E000F1F0B0FBF5F006EB0016FEF7B1FE00EBE6
:1023F000C00101EB001061688900B0FBF1F7FEF746
:10240000A7FE3BE0FEF794FE00EBC00101EB0010DD
:1024100061688900B0FBF1F7FEF78AFE00EBC001AE
:1024200001EB00106168B0468900B0FBF1F0B0FB31
:10243000F5F06FF01801484307EB800106EB01103F
:10244000B0FBF5F000F0F006FEF772FE00EBC00105
:1024500001EB001061688900B0FBF1F0B0FBF5F012
:1024600006EB0016FEF764FE00EBC00101EB001066
:1024700061688900B0FBF1F7FEF75AFE00EBC0017E
:1024800001EB001061688900B0FBF1F0B0FBF5F0E2
:102490006FF01801484307EB800108EB0110B0FB17
:1024A000F5F0216800F00F0030448860BDE8F0814D
:1024B0000038014090F83910212901D002207047DE
:1024C0008168B1F5805F016A0BD04A1C0262026824
:1024D00009785160C18C491E0904090CC1840ED0D1
:1024E00017E009880268C1F30801516001690029F9
:1024F000016A02D0491C0162ECE7891CFBE7016814
:10250000CA6822F08002CA600068C16841F04001D8
:10251000C160002070472DE9F041984617460E46ED
:102520000446069D1DE0681C1BD02DB1FEF7AEFCD5
:10253000A0EB0800A84214D92068C16821F4D0712A
:10254000C1602068416921F001014161202084F8C7
:10255000390084F83A00002084F838000320BDE8F0
:10256000F0812068006836EA000004D00020B842FC
:10257000D9D00020F3E70120F9E700000148FEF779
:10258000F1BF00006C05002010B50548FEF7EAFF1A
:10259000BDE81040082203490148FFF715B90000C3
:1025A000AC05002030060020FEE700000FB4084B09
:1025B00010B504A902AA039800F0DEF8044602A9A7
:1025C000002000F070FC204610BC5DF814FB0000F9
:1025D000A72E000802E008C8121F08C1002AFAD17D
:1025E00070477047002001E001C1121F002AFBD193
:1025F000704700002DE9FF5F82B00021DDE9043063
:10260000020DDDF840B0034318D044F61050A2F29A
:10261000FF3242431514119801281FD0A5EB0B007F
:10262000401C5FEA000A4FF000064E4FDFF8389179
:10263000B046504615D5CAF1000413E011980124A4
:102640004AA3012801D16FEA0B010298119AC0E94F
:102650000031C0E9024206B0BDE8F09FCBF10000B6
:10266000DFE704460021404A491842EB0450CDE917
:10267000001012E0E00707D032463B46404649468C
:10268000FDF7ECFD8046894632463B46104619462A
:10269000FDF7E4FD06460F466410002CEAD1DDE9A3
:1026A0000401DDE90023BAF1000F06DAFDF7D6FDDB
:1026B00042464B46FDF7D2FD05E0FDF741FE42469E
:1026C0004B46FDF73DFE04460E460022284BFEF722
:1026D0009DF803D84FF0FF30014607E00022254B5C
:1026E00020463146FDF7D3FFFEF778F8102409E0C5
:1026F000002C0ADB0A220023FDF704FF039B303283
:102700001A55641E50EA0102F2D1641C039AC4F106
:1027100011031444119A012A03D0012208430DD158
:102720000AE0084304D000204FF0110B119072E72B
:10273000A3EB0B056D1E0DE05B4504DD4FF00002C1
:1027400005F1010504E003DA4FF00002A5F10105EF
:10275000002AECD002981199C0E90231C0E9004585
:1027600079E70000000014400000F03F3000000056
:102770000000F0430000E03F2DE9FF4F95B09B467D
:102780008946064600250FE2252877D100242746F2
:10279000F84A0121059400E0044316F8013F203B6C
:1027A00001FA03F01042F7D130782A2811D06FF0E7
:1027B0002F033078A0F13002092A16D8059A44F088
:1027C000020402EB820203EB42021044761C0590E5
:1027D000EFE759F8042B0592002A03DA504244F43B
:1027E0000054059044F00204761C30782E2816D14F
:1027F00016F8010F44F004042A280DD06FF02F02C0
:102800003078A0F13003092B09D807EB870302EBDE
:102810004303C718761CF3E759F8047B761C30781D
:102820006C280FD006DC4C2817D068280DD06A28F9
:1028300014D104E0742810D07A280FD10DE044F4AC
:1028400000140AE044F4801401E044F44014727867
:10285000824202D104F58014761C761C30786628FA
:102860000BD013DC582877D009DC002875D0452818
:10287000F6D04628F4D047281AD19DE118E0632805
:1028800035D0642879D0652812D195E1702873D0AD
:1028900008DC6728F1D069286FD06E280DD06F282A
:1028A00006D1B5E073282CD0752875D0782874D05F
:1028B0005A46179990476D1C75E1C4F302500228DF
:1028C00009D003280DD0D9F8001004280DD00D60D0
:1028D00009F1040967E1D9F80010EA17C1E90052CB
:1028E000F6E7D9F800100D80F2E70D70F0E719F85F
:1028F000041B8DF8001000208DF80100EA4601202D
:1029000003E059F804AB4FF0FF3061074FF00001CE
:1029100002D40DE008F101018846B9420FDA804582
:10292000F8DB1AF808100029F4D108E008F10101D9
:1029300088468142FADB1AF808100029F6D105987A
:102940005B46A0EB080721463846179A00F094FA38
:10295000284400EB080507E04DE029E10DE01AF8F6
:10296000010B5A4617999047B8F10108F7D25B4618
:1029700021463846179A13E142E00A220092C4F336
:1029800002524FF0000A022A08D059F804CB032A59
:102990004FEAEC710AD00DE029E02AE009F10701C5
:1029A00021F00702F2E802C1914609E00FFA8CFC1F
:1029B0004FEAEC71042A03D14FFA8CFC4FEAEC7118
:1029C000002907DA0A460021DCF1000C61EB020164
:1029D0002D2202E0220504D52B228DF804200122AD
:1029E00003E0E20701D02022F7E7904659E00A21F0
:1029F00002E010220DE010214FF0000A00910BE0E0
:102A000010224FF0000A44F004040827009203E06B
:102A100008224FF0000A0092C4F30252022A05D0A5
:102A200059F804CB0021032A08D009E009F1070175
:102A300021F00702F2E802C1914605E01FFA8CFC82
:102A4000042A01D10CF0FF0C4FF00008220728D512
:102A5000702806D0009B83F0100353EA0A0305D0C8
:102A60000EE040228DF80420012208E05CEA010219
:102A700006D030228DF804208DF805000222904601
:102A8000009B83F0080353EA0A030AD15CEA0102BF
:102A900001D1620705D530228DF804204FF00108DE
:102AA0007F1E582804D034A003900EA802900DE099
:102AB00036A0F9E753466046009AFDF723FD8446A9
:102AC0000398825C0298401E029002705CEA01004A
:102AD000F0D1029806A9081A00F1200A600702D571
:102AE00024F4803400E00127574502DDA7EB0A00FB
:102AF00000E0002000EB0A01009005984144401AD4
:102B00000590E00306D45B462146179A059800F02D
:102B1000B3F90544002706E001A85A46C05D17999D
:102B200090476D1C7F1C4745F6DBE0030CD55B46E8
:102B30002146179A059800F09FF9054404E03020DB
:102B40005A46179990476D1C0099481E009000291D
:102B5000F5DC08E0029802995A460078491C029177
:102B6000179990476D1CBAF10001AAF1010AF1DC36
:102B700065E1000009280100303132333435363741
:102B800038396162636465660000000030313233B9
:102B90003435363738394142434445460000000059
:102BA00000F058F90544761C307800287FF4ECAD2D
:102BB00019B02846BDE8F08F620700D4062709F156
:102BC000070222F0070CFCE80223E14603F000486C
:102BD0005FEA080C02D00FF2702C0DE05FEA045C93
:102BE00002D50FF2682C07E05FEAC47C02D00FF236
:102BF000602C01E0AFF2700C4FF0FF3823F000437F
:102C0000CDF850C065280CD006DC452809D04628F0
:102C10001DD047283DD13DE0662818D067287ED1D9
:102C200038E00021112F01DB112000E0781CCDE9F4
:102C3000000106A90EA8FFF7DDFCDDE90F010E9AE1
:102C400003910021009207F1010A04914DE04FF039
:102C500000400097CDE9011006A90EA8FFF7CAFCB5
:102C6000DDE90F0203920E9B11990022DDF80CA002
:102C70000093049211B9791C00EB010AB7EB0A002A
:102C800004D4C0F1FF3007F1010A0490AAEB070059
:102C9000019044E0012F00DA01270021112F01DD0E
:102CA000112000E03846CDE9000106A90EA8FFF783
:102CB000A1FCDDE90F010E9A03910021049100921D
:102CC000BA4621070CD40399514500DA8A46BAF175
:102CD000010F05DD009AAAF10101515C302908D0ED
:102CE000B84202DA10F1040F06DA0121CDE9011031
:102CF00015E0AAF10101E9E7002805DC0499014487
:102D00000491AAEB000102E0411C514500DD8A4616
:102D10000499401A401C01904FF000400290200797
:102D200004D40198504501DBCDF8048000208DF8D3
:102D30004F0002980DF14F07B0F1004F25D02B2026
:102D40000E9002984FF0020800280CDA40420290E0
:102D50002D200E9007E00A210298FDF7BDFB3031CF
:102D6000029007F8011DB8F10001A8F10108F2DC9A
:102D700002980028EFD1791E0E980870307800F084
:102D8000200040F0450007F8020D12A8C01B00F11A
:102D900007081498007800B1012000EB0A0101989F
:102DA00001EBE07105984144401A401E0590E00394
:102DB00006D45B462146179A059800F05DF8054455
:102DC0001498007818B15A46179990476D1CE00383
:102DD00024D55B462146179A059800F04DF8054426
:102DE0001CE00498002807DBDDE90301884203DDCD
:102DF0000098405C179901E0179930205A46904797
:102E0000049805F10105401C04900198401E0190B2
:102E100004D12E205A46179990476D1CBAF1000133
:102E2000AAF1010ADDDC05E017F8010B5A461799F3
:102E300090476D1CB8F10001A8F10108F4DC5B4675
:102E40002146179A0598ABE62D0000002B000000E4
:102E5000200000002DE9F041044600251E461746DB
:102E6000880404D405E039462020B0476D1C641E58
:102E7000F9D52846BDE8F0812DE9F041044600254A
:102E80001E469046C80301D5302700E0202788045D
:102E900004D505E041463846B0476D1C641EF9D59F
:102EA0002846BDE8F0810A68531C0B60107070471B
:102EB0002DE9F0410446FDF7E9FF06462069FDF7DC
:102EC000AEFAE168FDF772F905463046FDF7A7FA5C
:102ED0002946FDF7F7FA16D22069301AFDF7B5FA40
:102EE00007460D466068FDF79FFA0022074BFDF785
:102EF000B5F93A462B46FDF723FAFDF7C6FAA0606E
:102F0000002026616060BDE8F081000000004E40B6
:102F100008B5FDF7C9FFFFF768F9FEF73BFFFEF7BD
:102F200001FF864884494FF4E13500240160C0E97F
:102F300001540C26C460C0E904468461C461FEF7F4
:102F400099FB7E487E4940300160C0E90154C4606D
:102F5000C0E904468461C461FEF78CFBFEF7D8FD2E
:102F600076480021EC30FDF70DFD01217548FDF795
:102F700009FD744802211430FDF704FD4FF4FA6096
:102F8000FDF732FE6F4914223C39A1F18400FEF7AF
:102F90001BFC04E06CA264219620FEF78BFDFEF77B
:102FA000F7FF0128F6D16F4FDFF8BC916F4D704EDF
:102FB0003C704FF4005B4FF00408012269465F4803
:102FC000FEF702FCC0B99DF80000522802D0472845
:102FD00008D011E0012203214846FDF752FF0022EC
:102FE000202106E0012222214846FDF74AFF002267
:102FF00001214846FDF745FF59463046FDF73CFFA5
:10300000012808D1287810B1012803D003E001205D
:10301000287000E02C7055482A7856A1401CFFF714
:10302000C5FA524A6421521C0846FEF743FD9DF83A
:103030000000522866D12878012863D1414814380D
:10304000FFF736FFDFF8FCA00321AAF1320A0AF1EC
:103050001E008AF800108068FDF704FA02460B464D
:1030600045A10AF10100FFF7A1FA8AF809804FF0A3
:10307000FF330A2251463148FEF71AFC6420FDF75F
:10308000B3FD3048FFF714FF0AF10A0A2D48052165
:103090008AF800108068FDF7E5F902460B4636A174
:1030A0000AF10100FFF782FA06218AF80910CB1F06
:1030B0000A2251462148FEF7FBFB6420FDF794FDF0
:1030C0000AF13C00FFF7F4FE0AF10A0A07210AF1AF
:1030D00032008AF800108068FDF7C4F902460B46FA
:1030E00025A10AF10100FFF761FA08218AF8091009
:1030F0004FF0FF330A2251461048FEF7D9FB6420F7
:10310000FDF772FD387802287FF457AF9DF8000074
:103110005228F9D11948C0F8008020207061306130
:10312000164A121FC2F80080706130610348FEF732
:103130001FFC3C7041E70000003801406C05002096
:10314000004800406C060020556E7375636365731C
:103150007366756C20496E697469616C697A617413
:10316000696F6E009B000020000C01409C00002055
:10317000001001402564000025660000140801408D
:1031800010B50446007838B10A4A01280ED002284A
:103190000BD18021104601E080210748FDF76CFE2D
:1031A0000028606804DD401C606010BD4021F1E72C
:1031B000401EF9E7000C014000080140000000003B
:1031C00000000000000000000000000000000018E7
:1031D0003C3C3C1818001818000000000000006675
:1031E0006666000000000000000000000000006CA7
:1031F0006CFE6C6C6CFE6C6C000000000018183CDF
:1032000066060C183060663C1818000000000E1BA3
:103210005B6E30180C76DAD8700000000000001CDD
:1032200036361C06F66666DC00000000000000185A
:10323000181800000000000000000000000000302E
:1032400018180C0C0C0C0C18183000000000000CA6
:103250001818303030303018180C00000000000012
:10326000006C38FE386C0000000000000000000018
:103270000018187E18180000000000000000000070
:103280000000000000003838301800000000000086
:103290000000007E000000000000000000000000B0
:1032A000000000000000383800000000000000604E
:1032B00060303018180C0C06060000000000007882
:1032C000CCECECCCDCDCCC78000000000000003062
:1032D000383E303030303030000000000000003C1C
:1032E00066666030180C067E000000000000003C9E
:1032F000666660386066663C000000000000000CF6
:103300000C6C6C6C66FE6060000000000000007ECB
:103310000606063E6060301E000000000000003817
:10332000180C3E666666663C000000000000007EE9
:1033300060303018180C0C0C000000000000003C3D
:1033400066666E3C7666663C000000000000003C4D
:10335000666666667C30181C0000000000000000F5
:10336000003838000000383800000000000000007D
:1033700000383800000038383018000000000060C5
:1033800030180C060C18306000000000000000002F
:1033900000007E007E00000000000000000000062B
:1033A0000C18306030180C06000000000000003CD3
:1033B0006666301818001818000000000000007E33
:1033C000C3C3F3DBDBF303FE0000000000000018C2
:1033D0003C6666667E666666000000000000003E91
:1033E0006666663E6666663E000000000000003CC1
:1033F000666606060666663C000000000000001EC9
:10340000366666666666361E000000000000007EB6
:103410000606063E0606067E000000000000007E4E
:103420000606063E06060606000000000000003CF8
:10343000666606067666667C000000000000006690
:103440006666667E66666666000000000000003CF8
:10345000181818181818183C000000000000006028
:10346000606060606066663C00000000000000660E
:103470006636361E3636666600000000000000061E
:10348000060606060606067E00000000000000C6CE
:10349000C6EED6D6D6C6C6C600000000000000C6DE
:1034A000C6CEDEF6E6C6C6C6000000000000003C40
:1034B000666666666666663C000000000000003EC8
:1034C0006666663E06060606000000000000003C38
:1034D000666666666666663C306000000000003E18
:1034E0006666663E36666666000000000000003CC8
:1034F00066060C183060663C000000000000007E8C
:103500001818181818181818000000000000006695
:10351000666666666666663C00000000000000663F
:103520006666666666663C1800000000000000C61D
:10353000C6C6D6D6D66C6C6C0000000000000066D3
:10354000662C1818346666660000000000000066ED
:103550006666663C18181818000000000000007E1F
:10356000606030180C06067E000000000000003C81
:103570000C0C0C0C0C0C0C0C0C0C3C000000000691
:10358000060C0C1818303060600000000000003C91
:10359000303030303030303030303C0000183C6655
:1035A000000000000000000000000000000000001B
:1035B00000000000000000000000FF00001C1830A8
:1035C00000000000000000000000000000000000FB
:1035D000003C60607C66667C000000000000000625
:1035E000063E66666666663E00000000000000005B
:1035F000003C66060606663C000000000000006015
:10360000607C66666666667C000000000000000064
:10361000003C66667E06063C000000000000007864
:103620000C0C0C7E0C0C0C0C0000000000000000C8
:10363000007C66666666667C60603E000000000690
:10364000063E6666666666660000000000001818A2
:10365000001E18181818187E0000000000003030F6
:10366000003C30303030303030301E00000000067A
:10367000066666361E366666000000000000001E04
:10368000181818181818187E000000000000000014
:10369000007ED6D6D6D6D6C60000000000000000B8
:1036A000003E666666666666000000000000000078
:1036B000003C66666666663C000000000000000094
:1036C000003E66666666663E06060600000000006E
:1036D000007C66666666667C6060600000000000D4
:1036E0000066760E060606060000000000000000D8
:1036F000007C06063C60603E000000000000000CFC
:103700000C7E0C0C0C0C0C7800000000000000007B
:10371000006666666666667C0000000000000000C9
:103720000066666666663C18000000000000000047
:1037300000C6D6D6D6D66C6C000000000000000093
:103740000066663C183C6666000000000000000051
:10375000006666666666663C30180F000000000072
:10376000007E6030180C067E000000000000003073
:103770001818180C060C1818183000000000001853
:103780001818181818181818181818000000000C25
:103790001818183060301818180C00000000008E3F
:1037A000DB710000000000000000000000000000CD
:1037B00000000000010203040607080900000000E1
:1037C00001020304E437000800000020B8000000F4
:1037D000D42500089C380008B8000020100A00001A
:1037E000E42500084D11001246173F185019031A1E
:1037F00078320029502C782A00427F4D0963E0641A
:10380000FF65206600670013F00D810FC5142122AB
:10381000FF23012434253C26A12B006BAA13FF694A
:103820005D900A910192019301945F9553961197CF
:103830001A983D995A9A1E9B009C25A765A8659EDB
:1038400081A6067E0C7F16802A814E8261836F845A
:103850007B8586868E879788A489AF8AC58BD78C0F
:10386000E88D20A980AA80ACFF3300229923034A67
:1038700000491347084B144C1746050CD00EF500B1
:103880000000000000000000000000000100000037
:0C389000100000000000000000A24A042C
:0400000508000131BD
:00000001FF
