:020000040800F2
:10000000500500204501000899230008B31D000891
:10001000692300087D080008512A0008000000003C
:10002000000000000000000000000000BD230008E8
:100030007F08000800000000BB230008BF23000861
:100040005F0100085F0100085F0100085F01000810
:100050005F0100085F0100085F0100085F01000800
:100060005F0100085F0100085F0100085F010008F0
:100070005F0100085F0100085F0100085F010008E0
:100080005F0100085F0100085F0100085F010008D0
:100090005F0100085F0100085F0100085F010008C0
:1000A0005F0100085F0100085F0100085924000893
:1000B0005F0100085F0100085F0100085F010008A0
:1000C0005F0100085F0100085F0100085F01000890
:1000D0005F010008312A00085F0100085F01000885
:1000E0005F0100085F0100085F0100085F01000870
:1000F0005F0100085F0100085F0100085F01000860
:100100005F0100085F0100085F0100085F0100084F
:100110005F0100085F0100085F0100085F0100083F
:100120005F0100085F0100085F0100085F0100082F
:10013000DFF80CD000F090FB00480047593300086E
:10014000500500200648804706480047FEE7FEE7C6
:10015000FEE7FEE7FEE7FEE7FEE7FEE7FEE7FEE777
:100160001124000831010008202A04DB203A21FA7A
:1001700002F00021704721FA02F3D040C2F12002C0
:100180009140084319467047D2B201E000F8012BB4
:10019000491EFBD270470022F6E710B513460A4607
:1001A00004461946FFF7F0FF204610BD80EA010221
:1001B00010B502F00043400022D04A001FD0010ECB
:1001C00001EB1261C0F35600C2F3560240F4000086
:1001D00042F40002A0FB022000047F39140400D086
:1001E000401C50EA124001D44000491EC2B20C0625
:1001F00004EBD010401C4008802A02D003E000200D
:1002000010BD20F00100002900DA0020184310BDC5
:1002100030B480EA010202F0004530F0004221F0E3
:10022000004013D090B1C30DD40DC2F31601C0F33A
:100230001600E41A41F4000140F400027D349142BA
:1002400001D3641C00E04900002C02DA30BC00201D
:1002500070474FF400000023914201D3891A0343F1
:1002600040084FEA4101F7D151B1914202D14FF01C
:10027000004105E002D24FF0010101E06FF0010101
:1002800003EBC450284430BC00F0B2B92DE9FE4F56
:10029000804681EA0300C00F0C46009021F0004127
:1002A00023F00045B8EB0200A94105D240462146A3
:1002B00090461C460B46024623F00040104347D0B0
:1002C000270DC7F30A00C3F30A510290401A0190A8
:1002D00040286BDAC3F3130040F4801B0098924669
:1002E00020B10023D2EB030A63EB0B0B01985946B4
:1002F000C0F14002504600F05AF906460D465046FD
:100300005946019A00F062F910EB0800614100249F
:1003100087EA115284EAE7731A4340D0009A62B325
:10032000019A012A4FEA075215DC001B61EB02011A
:100330004FF0004202EA0752CDE90042001C41F5AD
:10034000801132462B4600F099F903B0BDE8F08FDA
:1003500040462146F9E7001B61EB0201001C41F514
:10036000801300185B412018A2F5001747EB03012A
:1003700040EAD570B6196D4111E06D084FEA3606B6
:1003800045EAC0754FEA0752001B61EB0201001CF1
:1003900041F5801149084FEA3000001951413246B9
:1003A0002B4603B0BDE8F04F00F059B90098012288
:1003B00040000023D0EB020263EBE073009821467B
:1003C0004FEAE074B8EB000061EB0401E9E783F069
:1003D00000435BE781F0004158E72DE9FE4F81EAD9
:1003E000030404F0004421F0004100944FF0000B9E
:1003F00023F0004350EA01045ED052EA03045BD0CC
:10040000C3F30A54C1F30A552C44A4F2F334019403
:10041000A0FB0254C1F3130141F48011C3F3130391
:1004200043F4801301FB024400FB034E840A970A45
:1004300044EA815447EA8357A4FB076802958D0A72
:1004400005FB07854FEA932C04FB0C542705029DFE
:100450004FEA065847EA1637B5EB08056EEB070C6E
:10046000870E920E47EA811742EA8312A7FB020128
:10047000B6EB0B0164EB00042B0D43EA0C335E1862
:1004800044EB1C50DA465146E7FB0201C5F3130466
:100490004FEA0B3343EA14534FEA0432019C43EA18
:1004A0000603A4F10C040294009CCDE900B400F012
:1004B000E5F803B0BDE8F08F00200146F9E7962388
:1004C0000022114600F09DB800F0004220F00040EC
:1004D000C10DC0F3160040F400007F2901DA0020AE
:1004E0007047962903DCC1F19601C84001E09639B6
:1004F0008840002AF4D04042704700F0004230F0BB
:1005000000400AD0C10D01F56071C0F3160042EA47
:100510000151C2084007114370470020014670474F
:1005200030B50B46014600202022012409E021FAC3
:1005300002F59D4205D303FA02F5491B04FA02F5C0
:100540002844151EA2F10102F1DC30BD2DE9F05F57
:100550000546002092469B46884606468146402432
:100560001BE02846414647462246FFF7FDFD53461D
:100570005A46C01A914110D311461846224600F03F
:1005800016F82D1A67EB01084F462246012000217C
:1005900000F00DF817EB00094E41201EA4F10104F4
:1005A000DFDC484631462A464346BDE8F09F202A14
:1005B00004DB203A00FA02F1002070479140C2F1BA
:1005C000200320FA03F3194390407047202A06DBEA
:1005D000CB17203A41FA02F043EAE07306E041FA11
:1005E00002F3D040C2F120029140084319467047FF
:1005F0000029A8BF7047401C490008BF20F0010037
:10060000704710B4B0FA80FC00FA0CF050EA010414
:1006100004BF10BC704749B1CCF1200421FA04F4A6
:1006200011FA0CF118BF012121430843A3EB0C017F
:10063000CB1D4FEA00614FEA102042BF002010BCE2
:10064000704700EBC35010440029A4BF10BC704792
:10065000401C490008BF20F0010010BC704710B5D5
:10066000141E73F1000408DA401C41F100019218D5
:100670005B411A4301D120F0010010BD2DE9F04D7E
:1006800092469B4611B1B1FA81F202E0B0FA80F2D3
:1006900020329046FFF78BFF04460F4640EA0A00DF
:1006A00041EA0B0153465A46084313D0114653EA18
:1006B000010019D0C8F140025046FFF755FD05462C
:1006C0000E46504659464246FFF771FF084305D093
:1006D000012004E020463946BDE8F08D00200543A6
:1006E00046EAE0762C4337430A986305E40AA0EB18
:1006F00008000022FD0A44EA47540A3002D50020CF
:100700000146E9E7010510196941DDE908450019CD
:100710006941BDE8F04DA2E72DE9F04D81EA0304FF
:1007200004F0004B21F0004514464FF0000A23F07E
:10073000004150EA050220D054EA01021DD0C5F361
:100740000A570246C5F31303C1F31300C1F30A5657
:1007500040F4801543F48013A7EB0608101BD6461F
:1007600008F2FD3873EB050002D308F1010801E03F
:1007700092185B41B8F1000F03DA00200146BDE892
:10078000F08D00204FF48011064684460EE0171BC2
:1007900073EB050705D3121B63EB050306434CEA15
:1007A000010C49084FEA300092185B4150EA0107FA
:1007B000EDD152EA030012D082EA040083EA050177
:1007C000084305D0101BAB4106D20122002306E0EE
:1007D00000224FF0004302E06FF0010253101AEBC9
:1007E00006004CEB085110EB0A0041EB0B01BDE891
:1007F000F04DFFF734BFC1F30A52C1F3130140F2C9
:10080000FF3341F480119A4202DA0020014670471A
:1008100040F233439A42A2F2334202DC5242FFF7E3
:10082000A3BCFFF7C4BE000030B5041E71F1000484
:1008300004DB4FF00044404264EB0101141E73F1ED
:10084000000405DB1C464FF00043524263EB0403F7
:10085000994208BF904230BD064C074D06E0E06863
:1008600040F0010394E8070098471034AC42F6D3F7
:10087000FFF762FCE03C0008003D0008FEE770471F
:1008800001B5009801E0401E00900028FBD108BD92
:1008900030B5B3F5804F05D06FF0704140F82210AD
:1008A000002030BD8C690B688D6823434C688989B2
:1008B000240144EA0524234343EA014150F822304D
:1008C000014C23401943E9E70000F0CF30B50A6836
:1008D00050F8223023F0010340F822308C68204B7E
:1008E0004A68082C1ED02243D1E903452C432243F9
:1008F0004C6922438C692243CC6922430C6A22430F
:100900004C6A22438C6A2243CC6A22430C6B0968EE
:10091000224350F821401C4052EA040240F82120B2
:10092000002030BDD1E9034542F008022C432243A8
:100930004C6922438C692243CC6922430C6A2243CE
:100940004C6A22438C6A2243CC6A22430C6B0968AE
:10095000224350F821401C40224342F04002DDE790
:100960008100F7FF30B5D1E9003443EA04138C6805
:100970008D89240244EA054423430C8A094D00EB87
:10098000820005EB045423430C7D6D0105EB0464E8
:10099000896923430B43416801F040410B434360A5
:1009A000002030BD0000F0FF2DE9F05F90F821102D
:1009B0000024022903D004218163012485E0016819
:1009C0000A6822F00E020A6001680A6822F0010239
:1009D0000A603F4E3E4FB215DFF8F4C0DFF8F090EA
:1009E000DFF8ECA0DFF8E8B0DFF8E4E00168783F7A
:1009F00013011502ACF1640CA9F15009AAF13C0AEB
:100A0000ABF1280BAEF1140E4FF48018B14227D988
:100A1000B9420ED0614512D049451DD0514518D07C
:100A2000594518D0714501D1424615E0294EB142D1
:100A300001D1012210E0274E1436B14201D110221B
:100A40000AE0244E2836B14206D0224A3C32914276
:100A500001D11A4600E02A461E49091F0A602BE010
:100A6000B94213D0614517D0494522D051451DD018
:100A700059451DD0714501D142461AE0B14202D11B
:100A80004FF0807215E0134EB14201D1012210E007
:100A9000104E1436B14201D110220AE00D4E283614
:100AA000B14206D00B4A3C32914201D11A4600E0D5
:100AB0002A46074980394A60012180F82110002127
:100AC00080F82010416B01B188472046BDE8F09FB7
:100AD000800002400804024030B585B0002000903C
:100AE0000190029003901248016800291ED1012153
:100AF00001601048416941F48071416140690224FC
:100B000000F4807004904FF68070CDE90004032556
:100B100069460395084800F013F84CF6B370CDE928
:100B2000000469460395054800F00AF805B030BD99
:100B30000C00002000100240001801400014014089
:100B40002DE9F84FDFF8B8A100220AF1040B144692
:100B500001274FF00F090BF1040E00BF0B6807FAD5
:100B600004F52B40AB4274D1DFF898C14E68A6EB78
:100B70000C0866452BD00DDC032E34D005DC36B3D3
:100B8000012E19D0022E2FD11BE0112E16D0122EBD
:100B90002AD119E0B8F5881F19D006DCB8F5803FD6
:100BA00015D0B8F5801F1FD111E0B8F5001F0ED089
:100BB000B8F5041F18D10AE0CA6815E0CA68121D0A
:100BC00012E0CA6808320FE0CA680C320CE08A688A
:100BD0002AB1012A4FF0080203D0456104E0042243
:100BE00002E0056100E00022FF2B01D8064601E08B
:100BF00000F104064FEA840501D9A5F12005D6F8D5
:100C000000C009FA05F82CEA080C02FA05F54CEACE
:100C1000050CC6F800C04D68ED006AD53A4DAE69C6
:100C200046F00106AE61AD6924F0030605F001054A
:100C30000095364D06EB050CDCF80850A6074FEA88
:100C4000167809FA08F6B543314EB04202D10026B3
:100C50001AE04EE02F4EB04201D1012614E02E4E94
:100C6000B04201D102260FE02C4EB04201D1032642
:100C70000AE02B4EB04201D1042605E0294EB042D5
:100C800001D1052600E0062606FA08F62E43CCF828
:100C900008604D68DAF80060ED03554601D51E4343
:100CA00000E09E432E604D68AD0305D5DBF8006083
:100CB0001E43CBF8006004E0DBF800509D43CBF806
:100CC00000504D68DEF80060ED02754601D51E4308
:100CD00000E09E432E604D68AD0205D5084D0C35F1
:100CE0002E681E432E6004E0054E0C3635689D4389
:100CF0003560641C102CFFF431AFBDE8F88F0000A4
:100D000000040140000011100010024000000140EA
:100D100000080140000C0140001001400014014097
:100D200000180140001C01408068084000D00120EC
:100D300070470AB1016170470904FBE70148806808
:100D400070470000140000200248816802781144B6
:100D50008160704714000020074810B5016841F019
:100D600010010160032000F073F8002000F006F885
:100D700000F024F8002010BD0020024070B50D4D99
:100D800004464FF47A712878B1FBF0F00A490968FB
:100D9000B1FBF0F000F029FB48B9102C07D200227B
:100DA0002146501E00F034F800206C6070BD012018
:100DB00070BD000014000020200000200C4808B581
:100DC000816941F001018161816901F001010091B6
:100DD000C16941F08051C161C06900F0805000904C
:100DE0000448416821F0E06141F00071416008BDB4
:100DF000001002400000014000F01F02012191405C
:100E00004009800000F1E020C0F8001170470000A8
:100E1000F0B40E4B1B680C46C3F30223C3F1070565
:100E2000042D00D90425191D072901D2002300E053
:100E3000DB1E012606FA05F1491E214099409E401D
:100E4000761E16403143F0BC01F0A7BA0CED00E06D
:100E5000064900F0070208684FF6FF03184040EA11
:100E60000220034A10430860704700000CED00E0C8
:100E70000000FA052DE9F047DFF8548105460E46DB
:100E8000D8F8000000F00700B0420CD2D8F80010EB
:100E900021F007013143C8F80010D8F8000000F035
:100EA0000700B0426FD128684A4C810712D540072D
:100EB00003D5606840F4E06060602878000703D5DF
:100EC000606840F4605060606068A96820F0F000DD
:100ED000084360602878C00744D06868012816D0AD
:100EE0002168022816D0890700294CDA616821F0B0
:100EF000030101436160FFF721FF6968074641F282
:100F0000883001290ED00229814618D026E02168B8
:100F10008903E9E78901E7E7FFF710FFC11B4945AE
:100F200001D918E081466068C0F381000128F3D13F
:100F300018E000BFFFF702FFC11B49450BD86068EE
:100F4000C0F381000228F5D10CE000BFFFF7F6FEE8
:100F5000C11B494502D90320BDE8F087606810F045
:100F60000C0FF3D1D8F80010404601F00701B14250
:100F70000BD9016821F0070131430160006800F0DE
:100F80000700B04201D00120E6E72878400705D5E8
:100F90006068E96820F4E060084360602878000732
:100FA00006D56068296920F4605040EAC10060609D
:100FB00000F036F86168084AC1F30311515CC8407B
:100FC000064908600020FFF7D9FE0020C4E70000B2
:100FD0000020024000100240C63C00082000002013
:100FE0000448054900684968044AC1F30221515C7C
:100FF000C84070472000002000100240D63C000886
:101000000448054900684968044AC1F3C221515C9B
:10101000C84070472000002000100240D63C000865
:1010200012A185B00FC98DE80F0014A0144A006802
:1010300004905168134801F00C03042B10D0082BC6
:101040000ED1C1F38343C9031DF803000AD55168CB
:1010500004AAC1F34041515C0A4A5043B0FBF1F08D
:1010600005B0704708494843FAE700000203040549
:10107000060708090A0B0C0D0E0F101001020000E4
:101080000010024000127A0000093D002DE9F84FDF
:1010900004460078B94DC00748D06868C0F38100A5
:1010A000012807D06868C0F38100022809D1686868
:1010B000C00306D52868800338D5606800286FD043
:1010C00034E06068B0F5803F0BD010B1B0F5A02FD0
:1010D00011D0286820F480302860286820F480200F
:1010E00002E0286840F480302860606888B1FFF72B
:1010F00025FE064609E0286840F480202860F0E7D5
:10110000FFF71CFE801B642875D828688003F7D57C
:101110000CE0FFF713FE064605E000BFFFF70EFEEA
:10112000801B6428F0D828688003F7D42078944E78
:1011300080074FF001094FF000083BD5686810F0B8
:101140000C0F07D06868C0F38100022809D16868D5
:10115000C00306D42868800714D5206901281FD150
:1011600010E02069B0B1C6F80090FFF7E7FD074630
:1011700005E000BFFFF7E2FDC01B0228C4D82868C5
:101180008007F7D52868616920F0F80040EAC100BF
:1011900028600FE0C6F80080FFF7D0FD074606E0A4
:1011A000E9E000BFFFF7CAFDC01B022823D828686A
:1011B0008007F7D4207800072CD57248A169D9B1EF
:1011C000C0F80090FFF7BAFD074604E0FFF7B6FD50
:1011D000C01B02280FD8686A8007F7D56A484FF409
:1011E000FA510068B0FBF1F0009000BF0098411E7A
:1011F0000091FAD20EE080E0C0F80080FFF79EFD7B
:10120000074604E0FFF79AFDC01B022875D8686AFC
:101210008007F7D42078400760D5E8690027C00030
:1012200008D4E86940F08050E861E869012700F0DF
:101230008050009055480168C90513D40168834661
:1012400041F480710160FFF779FD824606E000BF3E
:10125000FFF774FDA0EB0A0064284ED8DBF800000D
:10126000C005F5D5E06801280AD008B1052813D0DB
:10127000286A20F001002862286A20F0040002E0B9
:10128000286A40F001002862E06841F2883B98B18A
:10129000FFF754FD82460BE0286A40F00400286204
:1012A000EEE700BFFFF74AFDA0EB0A0159455AD807
:1012B000286A8007F6D50CE0FFF740FD824605E07E
:1012C000FFF73CFDA0EB0A0159454CD8286A80077E
:1012D000F6D41FB1E86920F08050E861E06988B376
:1012E0006968C1F38101022945D00228C6F86080EF
:1012F00004D0FFF723FD044638E034E0FFF71EFD7D
:10130000074604E0FFF71AFDC01B02282BD8286807
:101310008001F7D4206AB0F5803F05D16868A168E4
:1013200020F4003008436860D4E908010843696884
:1013300021F4741108436860C6F86090FFF7FEFC62
:10134000044606E015E000BFFFF7F8FC001B02288A
:1013500009D828688001F7D50BE000BFFFF7EEFC45
:10136000001B022802D90320BDE8F88F28688001FD
:10137000F4D40020F8E70120F6E700000010024056
:1013800000004242800442422000002000700040E1
:1013900070B515460E46040003D094F83D0010B118
:1013A00007E0012070BD002084F83C00204600F0DA
:1013B0001AF804F108012068FFF788FA3146A2689C
:1013C0002068FFF7CFFAD4E901022946236BFFF723
:1013D0005FFAA168206850F8212042F0010240F82D
:1013E0002120002070BDFFF777BB10B5401EB0F183
:1013F000807F01D3012010BD4FF0E02460610F21F8
:10140000601700F0CAFF0020A061072020610020C3
:1014100010BD7047704730B590F83C20012A20D0AD
:10142000012280F83C20022380F83D3003685C688C
:1014300024F070045C6003685C680D682C435C6099
:1014400003689C6824F080049C6003689C68496879
:101450000C439C6080F83D20002180F83C10084639
:1014600030BD022030BD10B5040003D094F83D001B
:1014700010B107E0012010BD002084F83C00204698
:1014800000F00CF8022084F83D00211D206800F0D7
:10149000E9FF012084F83D00002010BD08B5006878
:1014A0000649884208D10648C16941F00201C1617C
:1014B000C06900F00200009008BD00000004004078
:1014C0000010024070B5044690F83C00012817D087
:1014D000012584F83C50022084F83D002068826891
:1014E00022F0770222F47F4282600868502837D0C9
:1014F0000DDC202859D005DC88B3102841D151E0FB
:10150000022070BD302853D040283AD13FE06028F7
:101510002ED070280BD0B0F5805F03D0B0F5005FFF
:101520002FD110E02068816821F0070115E0CB6819
:10153000D1E90121206800F0E6FF2168886840F0C9
:10154000770088601DE0CB68D1E90121206800F0B8
:10155000DAFF2068816841F48041816011E01EE07B
:10156000CA684968206801F0A3F85021206806E0A5
:10157000CA684968206801F0E3F86021206800F03B
:10158000CCFF84F83D50002084F83C0070BDCA6850
:101590004968206801F08CF840212068EFE70021BD
:1015A0002068ECE710212068E9E720212068E6E7C1
:1015B00030212068E3E770472DE9F041044690F8B8
:1015C0003C000D4601283BD0012684F83C600220F7
:1015D00084F83D009AB3042A44D02068082A53D0E6
:1015E000D5E90027E968036A23F480530362D0F841
:1015F0001CC0036A2CF4407C4CEA07274FF6FF7CA2
:1016000027F470470CEA01313943770323F4005380
:1016100007EA02321A43C16102622068C16921F4FB
:101620004061C1612068C169AA6841EA0221C161C3
:1016300084F83D60002084F83C00BDE8F08101E0C2
:101640000220FAE7D5E90012EB68206801F042F8C1
:101650002068816921F00C01816120688169AA6894
:1016600011430FE0D5E90012EB68206801F07AF829
:101670002068816921F44061816120688169AA68DC
:1016800041EA02218161D3E7D5E9002C2F7B016A71
:1016900021F480710162C169036A21F0030141EA0A
:1016A0000C0121F0F00C39074FF400774CEA11617E
:1016B00023F4007307EA02221A43C1610262206820
:1016C000C16921F00C01C1612068C169AA68114398
:1016D000ADE710B5040003D094F83D0010B107E069
:1016E000012010BD002084F83C00204600F00CF8DA
:1016F000022084F83D00211D206800F0B3FE012087
:1017000084F83D00002010BD00B585B00021009197
:101710000191029103910068124988421FD1124839
:10172000816941F400618161816901F40061049182
:10173000816941F0040181618069694600F004001B
:1017400004904FF4807000900848FFF7F9F90022E8
:1017500011461B20FFF75CFB1B20FFF74DFB05B07C
:1017600000BD0000002C01400010024000080140B4
:1017700010B50268044631B1042908D0082915D0F3
:101780000C2908D116E0D06840F0020002E0D068D1
:1017900040F00400D0600122206800F0A9FE20681B
:1017A000016841F001010160002010BDD06840F0E7
:1017B0000800EFE7D06840F01000EBE770B5044692
:1017C000006801694FF00005C943890715D4C16855
:1017D000C943890711D4E91E0161012020772068DF
:1017E00080698007204602D0FFF7E5FE04E000F0A4
:1017F000CBF8204600F04DF9257720680169C943F0
:10180000490717D4C168C943490713D46FF00401CD
:101810000161022020772068806910F4407F204613
:1018200002D0FFF7C8FE04E000F0AEF8204600F05A
:1018300030F9257720680169C943090716D4C168C2
:10184000C943090712D46FF0080101610420207711
:101850002068C0698007204602D0FFF7ACFE04E094
:1018600000F092F8204600F014F92577206801690D
:10187000C943C90617D4C168C943C90613D46FF058
:1018800010010161082020772068C06910F4407FB2
:10189000204602D0FFF78FFE04E000F075F82046E6
:1018A00000F0F7F8257720680169C943C90708D116
:1018B000C168C943C90704D1891E0161204600F0EF
:1018C00005F920680169C943090609D4C168C943FB
:1018D000090605D46FF0800101612046FFF799FDEC
:1018E00020680169C943490609D4C168C94349064A
:1018F00005D46FF040010161204600F0E8F820684F
:101900000169C94389060BD4C168C943890607D454
:101910006FF0200101612046BDE87040FFF77ABDFD
:1019200070BD000000B585B00021009101910291C9
:1019300003910068104988421BD11048816941F029
:10194000100181618069694600F0100004904FF435
:10195000307000900220019003900948FFF7F0F8E2
:101960000848416821F4406141F0E06141F4406180
:10197000416005B000BD00000004004000100240BE
:101980000010014000000140704770B5044690F817
:101990003C000D4601280DD0012684F83C60022051
:1019A00084F83D0042B1042A18D0082A2AD00C2A13
:1019B0004DD139E0022070BD206800F0B7FD2068ED
:1019C000816941F0080181612068816921F0040189
:1019D0008161206881692A69114311E0206800F063
:1019E000D5FD2068816941F40061816120688169C9
:1019F00021F480618161206881692A6941EA0221BC
:101A0000816124E0206800F0F7FD2068C16941F0A1
:101A10000801C1612068C16921F00401C161206829
:101A2000C1692A69114311E0206800F019FE20689D
:101A3000C16941F40061C1612068C16921F480611C
:101A4000C1612068C1692A6941EA0221C16184F843
:101A50003D60002084F83C0070BD10B5040003D048
:101A600094F83D0010B107E0012010BD002084F87B
:101A70003C00204600F00CF8022084F83D00211DB7
:101A8000206800F0EFFC012084F83D00002010BD2C
:101A90007047704710B504460068012200F028FD29
:101AA00008492068884202D00749884203D1416C26
:101AB00041F4004141642068016841F00101016086
:101AC000002010BD002C01400034014070477047D9
:101AD0007047000070B5026804461068D168536909
:101AE00010F00F0F50D003F0010501F4907635434C
:101AF0005DD0C20705D0CA0503D5E26B42F00102F2
:101B0000E263420705D5DA0703D0E26B42F0020236
:101B1000E263820705D5DA0703D0E26B42F00402E4
:101B2000E263020705D5DA0703D0E26B42F0080250
:101B3000E263E26B002A33D0800604D5880602D522
:101B4000204600F040FE20684069E16BC0F3801041
:101B5000090700D428B3204600F027FE2068416919
:101B600049061AD5416921F040014161606BA0B17D
:101B70001B494163606BFEF717FF002810D0606BB4
:101B8000416BBDE870400847830610D58B060ED523
:101B90002046BDE8704000F016BE2046FFF798FFD3
:101BA00070BD2046FFF794FF0020E06370BD030680
:101BB00006D50B0604D52046BDE8704000F006BFF0
:101BC0004006F3D54806F1D5D168204621F0400102
:101BD000D160202184F8391000F0EAF870BD0000CF
:101BE0009B27000870B5040004D094F83900002544
:101BF00010B106E0012070BD84F83850204600F096
:101C000023F8242084F839002068C16821F40051A9
:101C1000C160204600F022FE2068016921F4904155
:101C200001612068416921F02A0141612068C16891
:101C300041F40051C160E563202084F8390084F844
:101C40003A00002070BD000030B585B0002400943B
:101C50000194029403940068184988422CD11848D2
:101C6000816941F480418161816901F4804104917D
:101C7000816941F0040181618069124D00F0040026
:101C800004904FF400700090022001900320039014
:101C900069462846FEF754FF2815CDE90004694639
:101CA00028460294FEF74CFF002211462520FFF73C
:101CB000AFF82520FFF7A0F805B030BD003801408F
:101CC000001002400008014090F83A30202B22D149
:101CD000F9B1F2B190F83830012B1CD081628285C5
:101CE000C2850021C163222280F83A2080F8381092
:101CF0000168CA6842F48072CA6001684A6942F0A9
:101D000001024A610068C16841F02001C160002001
:101D100070470120704702207047000070B52248CC
:101D20008278017845781044C0780A283AD11F4C4F
:101D3000302935D11C48302D837942790179C0781A
:101D400008D0312D0DD0322D14D0332D19D0342D93
:101D50001ED025E0E370A270617020700020216821
:101D600005E0E370A270617020700120216800F02E
:101D700031F815E0E370A2706170207000202168D6
:101D80000CE0E370A270617020700120216805E012
:101D9000E370A270617020700220216800F0EEFAFA
:101DA0000020206070BD000000000020080000201E
:101DB0007047FEE706480021017041708170C170D4
:101DC00041608160C16001614161816170470000D3
:101DD000240000200B4A58B101280BD002280BD058
:101DE00003280BD004280BD0052800D1916170473F
:101DF000516070479160704711617047D1607047C2
:101E00005161704724000020044B4FF4805108B109
:101E1000002200E001221846FEF78BBF00140140AB
:101E200070B51D461446049E00F072F804FB05F0E0
:101E30003146BDE8704000F049B8000070B5203A66
:101E4000D4B21023082200F063F82C20C1060880C9
:101E50000C490D4B01EB041500204FF6FF742A5C72
:101E60000021D60702D01F261E8000E01C80491CDE
:101E70005208C9B20829F4D3401CC0B21028EED3CE
:101E800070BD0000D636000800000260F0B51646AE
:101E90000D4604464FF4A07714E000BF04F108009B
:101EA000F02802D900241035ADB205F11000B84277
:101EB00001D90024254629462046FFF7BFFF0834F4
:101EC000A4B2761C3278002AE8D1F0BD10B5002209
:101ED0002C23DC062380034B01E01980521C824234
:101EE000FBD310BD0000026008B50120FFF78CFF96
:101EF00000F0EAF800F02CF84FF6FF700021009097
:101F00004FF4A073F0220846FFF78AFF08BD0000D7
:101F100070B54FF0C0452A242C800C4C060A268050
:101F2000C6B226801044401E020A2280C0B2208021
:101F30002B202880080A2080C8B22080C818401EA4
:101F4000010A2180C0B2208070BD00000000026044
:101F500000B54FF0C041CF200880594800220280D0
:101F60008122028030220280ED220A8064220280D7
:101F7000032202801222028081220280E8220A804B
:101F8000852202801022028078220280CB220A80E1
:101F9000392202802C220280002202803422028018
:101FA00002220280F7220A8020220280EA220A808E
:101FB000002202800280B1220A80002202801B22BD
:101FC0000280B6220A800A220280A2220280C02257
:101FD0000A8035220280C1220A8011220280C52295
:101FE0000A80452202800280C7220A80A222028043
:101FF000F2220A800022028026220A800122028028
:10200000E0220A800F2202802622028024220280FF
:102010000B2202800E2202800922028054220280BA
:10202000A8220280462202800C220280172202800F
:10203000092202800F2202800722028000220280F1
:10204000E1220A8000220280192202801B220280E3
:102050000422028010220280072202802A220280AB
:102060004722028039220280032202800622028057
:10207000028030220280382202800F220280362223
:102080000A80C82202802A220A800022028002805E
:102090000280EF2202802B220A800022028002802E
:1020A000012202803F2202803A220A8055220280C9
:1020B000112008800348FEF7E3FB2920088000BDBB
:1020C00000000260FCBF020070B50A4C0022022131
:1020D0002046FEF72EFE084D2846FEF7D1FB0122D2
:1020E00002212046FEF725FE2846BDE87040FEF797
:1020F000C7BB000000180140FCBF020000B587B05C
:102100001C216846FEF747F815484FF02041102281
:1021100001601449416000218160C160C0E904127E
:102120008161C16113020162C0E90913C1620163E7
:10213000416381630F20FF230090CDE90103CDE9C6
:1021400003021120CDE90501002269460448FFF78A
:102150001FF90548C16941F48061C16107B000BD44
:102160000C010020040100A0000001402DE9F0470F
:1021700086B000243C480094019402940394816941
:1021800041F010018161816901F0100104918169C0
:1021900041F004018161816901F0040104918169C8
:1021A00041F008018161816901F0080104918169B0
:1021B00041F040018161816901F040010491816930
:1021C00041F0200181618069DFF8A08000F02000EB
:1021D0000490012223214046FEF7ABFD00224FF47C
:1021E00073414046FEF7A5FDDFF884904FF4805719
:1021F000002239464846FEF79CFDDFF878A0002211
:1022000002215046FEF795FD7800CDE900046946AD
:1022100019480294FEF794FC0125CDE90054694663
:1022200016480294FEF78CFC4FF223300326CDE9CA
:102230000005CDE9024669464046FEF781FC00975D
:102240000396CDE9015469464846FEF779FC022021
:10225000CDE90005CDE9024669465046FEF770FC1F
:1022600006B0BDE8F087000000100240000C0140FD
:102270000014014000180140001001400008014016
:1022800010B586B000241448059404940094019479
:1022900002941049039401604721C0E901144FF6EC
:1022A000FE71C0E9031444618461FFF712FA0494DB
:1022B00004A909480594FFF7AEF80120CDE90040D4
:1022C00002940022694604480394FFF775F906B0AA
:1022D00010BD0000002C01404C00002010B58EB055
:1022E00000240794089409940A940B941C216846CE
:1022F0000C94FDF750FF1B481949C0E9001440F247
:10230000E731C0E9024104618461FFF7ACF84FF4A2
:102310008050079007A91348FFF7D4F81148FFF73A
:102320009CFB0B940BA90F480C94FFF774F86020EA
:10233000CDE900040294002269460A480494FFF79C
:1023400024FB042269460748FFF71FFB0C2269465D
:102350000448FFF71AFB0348FFF7E4FA0EB010BD7C
:10236000000400408C000020FEE70000024800212D
:10237000016041608160704740000020054A28B13B
:10238000012805D0022800D1916070471160704784
:10239000516070474000002070470907090E00286F
:1023A00006DA00F00F0000F1E02080F8141D7047FD
:1023B00000F1E02080F80014704770477047FEF786
:1023C000C3BC30B58FB028216846FDF7E4FE142168
:1023D0000AA8FDF7E0FE01210804CDE90010002461
:1023E000029402250491CDE907504FF4E0100990C2
:1023F0006846FEF74BFE0F20CDE90A056802CDE9DD
:102400000C4002210AA80E94FEF734FD0FB030BD37
:102410000D48016841F00101016041680B4A11401B
:10242000416001680A4A11400160016821F480217D
:102430000160416821F4FE0141604FF41F01816099
:102440000449C00308607047001002400000FFF814
:10245000FFFFF6FE08ED00E00148FFF7AFB900000E
:102460004C000020F0B502681C4B1D4D1D4E1E4F48
:102470001E4C4FF0804C984209D0A04207D06045D6
:1024800005D0A84203D0B04201D0B84204D122F016
:10249000700E4A6842EA0E02984209D0A04207D064
:1024A000604505D0A84203D0B04201D0B84203D164
:1024B00022F44075CA682A4322F080054A692A43FB
:1024C00002608A68C2620A688262984201D0A042B1
:1024D00001D10969016301214161F0BD002C014076
:1024E0000004004000080040000C0040003401409F
:1024F00010B50123046A8B409C430462036A8A403E
:102500001343036210BD10B5846842EA032224F429
:102510007F440A432243826010BD826822F0700229
:102520000A4342F00701816070470000F0B5026A7B
:1025300022F001020262036A42688469124E24F0AA
:1025400073050C682C4323F002058B682B430D4D5B
:10255000A84201D0B04205D123F00807CB683B4325
:1025600023F00403A84201D0B04205D14D6922F402
:10257000407215438A692A43426084614968416315
:102580000362F0BD002C014000340140F0B5026A46
:1025900022F010020262026A436884690D6824F422
:1025A000E64444EA05248D6822F0200242EA05123E
:1025B0000F4D104EA84201D0B04206D1CF6822F094
:1025C000800242EA071222F04002A84201D0B04243
:1025D00007D14D6923F4406343EA85038D6943EADB
:1025E000850343608461496881630262F0BD000035
:1025F000002C014000340140F0B5026A22F48072E0
:102600000262026A4368C46922F4007224F073050E
:102610000C68124E2C438D6842EA05220E4DA842EA
:1026200001D0B04206D1CF6822F4006242EA07220C
:1026300022F48062A84201D0B04207D14D6923F450
:10264000405343EA05138D6943EA05134360C461AF
:102650004968C1630262F0BD002C014000340140B2
:1026600030B5026A22F480520262046A4268C36989
:102670000D6823F4E64343EA05238D6824F40054EF
:1026800044EA0534084DA84202D0084DA84204D1BE
:102690004D6922F4804242EA85124260C361496872
:1026A0000164046230BD0000002C01400034014090
:1026B00010B5036A046A24F001040462846924F0FA
:1026C000F00444EA021423F00A020A43846102621D
:1026D00010BD000070B5046A24F00104046284692E
:1026E000056A124EB0420ED0114EB0420BD0B0F17E
:1026F000804F08D00F4EB04205D00F4EB04202D0EE
:102700000E4EB04203D124F00304144301E044F020
:1027100001041A0724F0F00444EA126225F00A03C7
:1027200001F00A0119438261016270BD002C014071
:10273000003401400004004000080040000C00404C
:1027400010B5036A23F0100303628369046A23F45B
:10275000704343EA023224F0A00343EA011182618C
:10276000016210BD30B5046A24F01004046284696B
:10277000056A24F4407444EA022222F470444FF6BD
:10278000FF7202EA03322243A02425F0A00304EAE8
:10279000011119438261016230BD10B5406A002108
:1027A000C185C184FFF794F910BD0168CA6822F49D
:1027B0009072CA6001684A6922F001024A612021D0
:1027C00080F83A10704710B590F83A10222901D0DD
:1027D000022010BD8168B1F5805F11D00169002928
:1027E00001681FD0496801F07F03816A4A1C826238
:1027F0000B70C18D491E0904090CC18518D02BE04E
:102800000269816A002A0268526805D0D2B20A8041
:10281000816A491C8162ECE7C2F308020A80816A7E
:10282000891CF7E74A68816A4B1C83620A70E0E7FB
:102830000168CA6822F02002CA600168CA6822F4EE
:102840008072CA6001684A6922F001024A6120214F
:1028500080F83A10FFF762FA002010BD2DE9F04130
:10286000044600680169E26821F4405111430161A6
:102870002169A0680843616908432168CA6841F278
:102880000C639A430243CA6020684169A26921F43B
:102890004071114341614C492068642532268842C9
:1028A0003CD1FEF7ADFB00EBC00101EB001061680D
:1028B0008900B0FBF1F7FEF7A3FB00EBC00101EBD1
:1028C00000106168B0468900B0FBF1F0B0FBF5F094
:1028D0006FF01801484307EB800106EB0110B0FBD5
:1028E000F5F000F0F006FEF78BFB00EBC00101EB0A
:1028F000001061688900B0FBF1F0B0FBF5F006EB69
:102900000016FEF77DFB00EBC00101EB00106168D3
:102910008900B0FBF1F7FEF773FB3BE0FEF760FBCD
:1029200000EBC00101EB001061688900B0FBF1F71A
:10293000FEF756FB00EBC00101EB00106168B046EA
:102940008900B0FBF1F0B0FBF5F06FF018014843DF
:1029500007EB800106EB0110B0FBF5F000F0F0068C
:10296000FEF73EFB00EBC00101EB0010616889003F
:10297000B0FBF1F0B0FBF5F006EB0016FEF730FB14
:1029800000EBC00101EB001061688900B0FBF1F7BA
:10299000FEF726FB00EBC00101EB00106168890027
:1029A000B0FBF1F0B0FBF5F06FF01801484307EB16
:1029B000800108EB0110B0FBF5F0216800F00F007A
:1029C00030448860BDE8F0810038014090F839104B
:1029D000212901D0022070478168B1F5805F016A2A
:1029E0000BD04A1C0262026809785160C18C491EF2
:1029F0000904090CC1840ED017E009880268C1F3EC
:102A00000801516001690029016A02D0491C016274
:102A1000ECE7891CFBE70168CA6822F08002CA6003
:102A20000068C16841F04001C160002070470000AB
:102A300010B50548FFF74EF8BDE8104008220349DD
:102A40000148FFF741B90000CC0000200000002041
:102A5000FEE700000FB4084B10B504A902AA0398C2
:102A600000F0DEF8044602A9002000F070FC2046C9
:102A700010BC5DF814FB00004F33000802E008C8EA
:102A8000121F08C1002AFAD170477047002001E0E8
:102A900001C1121F002AFBD1704700002DE9FF5F22
:102AA00082B00021DDE90430020DDDF840B00343BF
:102AB00018D044F61050A2F2FF3242431514119878
:102AC00001281FD0A5EB0B00401C5FEA000A4FF065
:102AD00000064E4FDFF83891B046504615D5CAF182
:102AE000000413E0119801244AA3012801D16FEAE0
:102AF0000B010298119AC0E90031C0E9024206B008
:102B0000BDE8F09FCBF10000DFE704460021404A1A
:102B1000491842EB0450CDE9001012E0E00707D05D
:102B200032463B4640464946FDF757FC80468946BB
:102B300032463B4610461946FDF74FFC06460F4607
:102B40006410002CEAD1DDE90401DDE90023BAF1CB
:102B5000000F06DAFDF741FC42464B46FDF73DFC0F
:102B600005E0FDF7D9FD42464B46FDF7D5FD04468D
:102B70000E460022284BFDF757FE03D84FF0FF30DA
:102B8000014607E00022254B20463146FDF77EFB3B
:102B9000FDF731FE102409E0002C0ADB0A22002395
:102BA000FDF7D4FC039B30321A55641E50EA010233
:102BB000F2D1641C039AC4F111031444119A012A3E
:102BC00003D0012208430DD10AE0084304D00020BD
:102BD0004FF0110B119072E7A3EB0B056D1E0DE08A
:102BE0005B4504DD4FF0000205F1010504E003DA66
:102BF0004FF00002A5F10105002AECD002981199CE
:102C0000C0E90231C0E9004579E700000000144046
:102C10000000F03F300000000000F0430000E03F03
:102C20002DE9FF4F95B09B468946064600250FE2E9
:102C3000252877D100242746F84A0121059400E091
:102C4000044316F8013F203B01FA03F01042F7D18C
:102C500030782A2811D06FF02F033078A0F130029D
:102C6000092A16D8059A44F0020402EB820203EB0B
:102C700042021044761C0590EFE759F8042B0592A8
:102C8000002A03DA504244F40054059044F0020450
:102C9000761C30782E2816D116F8010F44F0040463
:102CA0002A280DD06FF02F023078A0F13003092BC5
:102CB00009D807EB870302EB4303C718761CF3E739
:102CC00059F8047B761C30786C280FD006DC4C2831
:102CD00017D068280DD06A2814D104E0742810D0C9
:102CE0007A280FD10DE044F400140AE044F4801473
:102CF00001E044F440147278824202D104F5801459
:102D0000761C761C307866280BD013DC582877D0D8
:102D100009DC002875D04528F6D04628F4D047288D
:102D20001AD19DE118E0632835D0642879D0652850
:102D300012D195E1702873D008DC6728F1D069289A
:102D40006FD06E280DD06F2806D1B5E073282CD037
:102D5000752875D0782874D05A46179990476D1CFD
:102D600075E1C4F30250022809D003280DD0D9F828
:102D7000001004280DD00D6009F1040967E1D9F8AD
:102D80000010EA17C1E90052F6E7D9F800100D80EB
:102D9000F2E70D70F0E719F8041B8DF80010002021
:102DA0008DF80100EA46012003E059F804AB4FF02A
:102DB000FF3061074FF0000102D40DE008F101017E
:102DC0008846B9420FDA8045F8DB1AF80810002966
:102DD000F4D108E008F1010188468142FADB1AF8D3
:102DE00008100029F6D105985B46A0EB080721469C
:102DF0003846179A00F094FA284400EB080507E0DB
:102E00004DE029E10DE01AF8010B5A461799904759
:102E1000B8F10108F7D25B4621463846179A13E10C
:102E200042E00A220092C4F302524FF0000A022A42
:102E300008D059F804CB032A4FEAEC710AD00DE010
:102E400029E02AE009F1070121F00702F2E802C1B6
:102E5000914609E00FFA8CFC4FEAEC71042A03D189
:102E60004FFA8CFC4FEAEC71002907DA0A46002180
:102E7000DCF1000C61EB02012D2202E0220504D5F9
:102E80002B228DF80420012203E0E20701D020224A
:102E9000F7E7904659E00A2102E010220DE01021E8
:102EA0004FF0000A00910BE010224FF0000A44F0AE
:102EB00004040827009203E008224FF0000A009261
:102EC000C4F30252022A05D059F804CB0021032A88
:102ED00008D009E009F1070121F00702F2E802C178
:102EE000914605E01FFA8CFC042A01D10CF0FF0C7E
:102EF0004FF00008220728D5702806D0009B83F0E9
:102F0000100353EA0A0305D00EE040228DF8042096
:102F1000012208E05CEA010206D030228DF804208C
:102F20008DF8050002229046009B83F0080353EAC7
:102F30000A030AD15CEA010201D1620705D53022F9
:102F40008DF804204FF001087F1E582804D034A0CB
:102F500003900EA802900DE036A0F9E753466046B4
:102F6000009AFDF7F3FA84460398825C0298401EAB
:102F7000029002705CEA0100F0D1029806A9081ADA
:102F800000F1200A600702D524F4803400E0012714
:102F9000574502DDA7EB0A0000E0002000EB0A0124
:102FA000009005984144401A0590E00306D45B4622
:102FB0002146179A059800F0B3F90544002706E06A
:102FC00001A85A46C05D179990476D1C7F1C474564
:102FD000F6DBE0030CD55B462146179A059800F016
:102FE0009FF9054404E030205A46179990476D1C1C
:102FF0000099481E00900029F5DC08E0029802992B
:103000005A460078491C0291179990476D1CBAF1F5
:103010000001AAF1010AF1DC65E1000009280100C4
:10302000303132333435363738396162636465663E
:103030000000000030313233343536373839414200
:10304000434445460000000000F058F90544761C52
:10305000307800287FF4ECAD19B02846BDE8F08F39
:10306000620700D4062709F1070222F0070CFCE8EA
:103070000223E14603F000485FEA080C02D00FF299
:10308000702C0DE05FEA045C02D50FF2682C07E0BB
:103090005FEAC47C02D00FF2602C01E0AFF2700C4A
:1030A0004FF0FF3823F00043CDF850C065280CD016
:1030B00006DC452809D046281DD047283DD13DE0F3
:1030C000662818D067287ED138E00021112F01DB57
:1030D000112000E0781CCDE9000106A90EA8FFF739
:1030E000DDFCDDE90F010E9A03910021009207F14A
:1030F000010A04914DE04FF000400097CDE9011026
:1031000006A90EA8FFF7CAFCDDE90F0203920E9B89
:1031100011990022DDF80CA00093049211B9791CDA
:1031200000EB010AB7EB0A0004D4C0F1FF3007F14D
:10313000010A0490AAEB0700019044E0012F00DA95
:1031400001270021112F01DD112000E03846CDE9D3
:10315000000106A90EA8FFF7A1FCDDE90F010E9AF8
:103160000391002104910092BA4621070CD40399DF
:10317000514500DA8A46BAF1010F05DD009AAAF13D
:103180000101515C302908D0B84202DA10F1040F75
:1031900006DA0121CDE9011015E0AAF10101E9E704
:1031A000002805DC049901440491AAEB000102E027
:1031B000411C514500DD8A460499401A401C01908B
:1031C0004FF000400290200704D40198504501DBE5
:1031D000CDF8048000208DF84F0002980DF14F07C4
:1031E000B0F1004F25D02B200E9002984FF002082E
:1031F00000280CDA404202902D200E9007E00A21B0
:103200000298FDF78DF93031029007F8011DB8F1F1
:103210000001A8F10108F2DC02980028EFD1791E24
:103220000E980870307800F0200040F0450007F854
:10323000020D12A8C01B00F107081498007800B115
:10324000012000EB0A01019801EBE071059841446F
:10325000401A401E0590E00306D45B462146179AAB
:10326000059800F05DF805441498007818B15A46A6
:10327000179990476D1CE00324D55B462146179AA9
:10328000059800F04DF805441CE00498002807DB81
:10329000DDE90301884203DD0098405C179901E0F5
:1032A000179930205A469047049805F10105401CB3
:1032B00004900198401E019004D12E205A4617997F
:1032C00090476D1CBAF10001AAF1010ADDDC05E0AE
:1032D00017F8010B5A46179990476D1CB8F1000179
:1032E000A8F10108F4DC5B462146179A0598ABE685
:1032F0002D0000002B000000200000002DE9F0410F
:10330000044600251E461746880404D405E03946C5
:103310002020B0476D1C641EF9D52846BDE8F08119
:103320002DE9F041044600251E469046C80301D50C
:10333000302700E02027880404D505E041463846C0
:10334000B0476D1C641EF9D52846BDE8F0810A68B7
:10335000531C0B601070704786B0FDF7FDFCFFF743
:1033600030F8FEF703FFB448B2490C2201604FF475
:10337000E131416000218160C160C0E904128161D6
:10338000C161FEF72FFCFEF77BFFFEF7B7FEFEF7ED
:10339000A5FFA94800214038FEF77CFBA648042180
:1033A0004038FEF777FBA4480C214038FEF772FB4B
:1033B000A14800218038FEF7DBF9FEF795FDFEF706
:1033C000F9FCFEF7D3FF002635463746344608227F
:1033D0009A499948FEF778FCDFF85CB2DFF860A202
:1033E0004FF40009ABF18C0BDFF8588203E017B102
:1033F000012F0FD108E001215046FDF795FC01286F
:1034000008D10127641CE4B201215046FDF78CFC71
:1034100000B90027E0077CD0874CA83C6068FDF726
:103420006CF802460B4688A16846FFF713FB6A4614
:1034300064210020FEF72AFDA068FDF75EF8024631
:103440000B4684A16846FFF705FB6A4682210020EF
:10345000FEF71CFD5C46DBF80000FDF74EF8024667
:103460000B467FA16846FFF7F5FA6A46A0210020C7
:10347000FEF70CFD6068FDF740F802460B467CA1A4
:103480006846FFF7E7FA6A46BE210020FEF7FEFC19
:10349000A068FDF732F802460B4679A16846FFF7AF
:1034A000D9FA6A46DC210020FEF7F0FC2068484586
:1034B0000DDB00224FF480514046FDF73AFC01221B
:1034C00051034046FDF735FC714920680CE00122AC
:1034D00011034046FDF72DFC00224FF400514046F9
:1034E000FDF727FC6B492068FCF792FE0246524824
:1034F0000C21403800F0D0F8606848450FDB00220E
:103500004FF480414046FDF714FC0122D1034046B0
:1035100000E07BE0FDF70DFC5D4960680CE00122F6
:1035200091034046FDF705FC00224FF40041404660
:10353000FDF7FFFB57496068FCF76AFE02463E480C
:103540000421403800F0A8F8A06848450DDB0022AF
:103550004FF480714046FDF7ECFB012251024046DA
:10356000FDF7E7FB4A49A0680CE001221102404642
:10357000FDF7DFFB00224FF400714046FDF7D9FB59
:103580004449A068FCF744FE02462B48002140381D
:1035900000F082F80A20B5FBF0F100FB115088BB67
:1035A000032096FBF0F100FB116161B196FBF0F195
:1035B00000FB116101290FD096FBF0F100FB1160B7
:1035C000022812D01CE00122032144464046FDF7A8
:1035D000B0FB0022202110E0012222214446404677
:1035E000FDF7A7FB0022012107E00122212144462B
:1035F0004046FDF79EFB002202212046FDF799FB85
:103600000025761C6D1CEDB20124F0E60A4800226C
:103610000C21403800F040F80748002204214038CF
:1036200000F03AF8044800221146403800F034F81F
:10363000DDE6000000380140CC0000200000002042
:1036400000080140000C01404142535F583A2025D8
:103650002E3366004142535F593A20252E336600CF
:103660004D6F746F725F303A20252E336600000074
:103670004D6F746F725F313A20252E336600000063
:103680004D6F746F725F323A20252E336600000052
:103690000000C8420000C8C270B50446C06888B0C7
:1036A00016460D46401CFCF70AFF3146FCF77EFD2E
:1036B000FCF70AFF6021CDE9001000200290049081
:1036C0002A4669462046FEF760F929462046FEF75D
:1036D000E1F908B070BD000000000000000000002B
:1036E000000000000000000000183C3C3C181800DE
:1036F0001818000000000000006666660000000068
:103700000000000000000000006C6CFE6C6C6CFEA1
:103710006C6C000000000018183C66060C18306045
:10372000663C1818000000000E1B5B6E30180C760B
:10373000DAD8700000000000001C36361C06F66661
:1037400066DC0000000000000018181800000000EF
:103750000000000000000000003018180C0C0C0CD9
:103760000C18183000000000000C181830303030F1
:103770003018180C000000000000006C38FE386C97
:10378000000000000000000000000018187E18185B
:103790000000000000000000000000000000000029
:1037A000383830180000000000000000007E0000E3
:1037B0000000000000000000000000000000000009
:1037C0003838000000000000006060303018180C2D
:1037D0000C060600000000000078CCECECCCDCDC31
:1037E000CC780000000000000030383E303030302F
:1037F0003030000000000000003C66666030180CAD
:10380000067E000000000000003C666660386066CE
:10381000663C000000000000000C0C6C6C6C66FE46
:103820006060000000000000007E0606063E60604A
:10383000301E0000000000000038180C3E6666666E
:10384000663C000000000000007E60303018180C5C
:103850000C0C000000000000003C66666E3C7666C2
:10386000663C000000000000003C666666667C3036
:10387000181C0000000000000000003838000000A4
:103880003838000000000000000000383800000058
:103890003838301800000000006030180C060C1892
:1038A0003060000000000000000000007E007E008C
:1038B000000000000000000000060C183060301806
:1038C0000C06000000000000003C6666301818007E
:1038D0001818000000000000007EC3C3F3DBDBF318
:1038E00003FE00000000000000183C6666667E666D
:1038F0006666000000000000003E6666663E666682
:10390000663E000000000000003C66660606066693
:10391000663C000000000000001E366666666666B3
:10392000361E000000000000007E0606063E060669
:10393000067E000000000000007E0606063E060629
:103940000606000000000000003C6666060676667B
:10395000667C00000000000000666666667E6666A3
:103960006666000000000000003C181818181818BF
:10397000183C00000000000000606060606060664D
:10398000663C00000000000000666636361E3636D3
:103990006666000000000000000606060606060631
:1039A000067E00000000000000C6C6EED6D6D6C6D1
:1039B000C6C600000000000000C6C6CEDEF6E6C6A1
:1039C000C6C6000000000000003C666666666666CB
:1039D000663C000000000000003E6666663E06068B
:1039E0000606000000000000003C6666666666662B
:1039F000663C306000000000003E6666663E36664B
:103A00006666000000000000003C66060C1830608E
:103A1000663C000000000000007E181818181818F6
:103A2000181800000000000000666666666666669C
:103A3000663C00000000000000666666666666661A
:103A40003C1800000000000000C6C6C6D6D6D66CE2
:103A50006C6C0000000000000066662C18183466CC
:103A6000666600000000000000666666663C181886
:103A70001818000000000000007E606030180C067E
:103A8000067E000000000000003C0C0C0C0C0C0C2E
:103A90000C0C0C0C3C0000000006060C0C18183036
:103AA0003060600000000000003C303030303030CA
:103AB000303030303C0000183C6600000000000050
:103AC00000000000000000000000000000000000F6
:103AD00000000000FF00001C183000000000000083
:103AE00000000000000000000000003C60607C66F8
:103AF000667C0000000000000006063E6666666602
:103B0000663E0000000000000000003C660606065D
:103B1000663C0000000000000060607C666666662F
:103B2000667C0000000000000000003C66667E0627
:103B3000063C00000000000000780C0C0C7E0C0C11
:103B40000C0C0000000000000000007C6666666649
:103B5000667C60603E0000000006063E66666666A3
:103B600066660000000000001818001E18181818DB
:103B7000187E0000000000003030003C3030303053
:103B8000303030301E0000000006066666361E36F5
:103B90006666000000000000001E181818181818AB
:103BA000187E0000000000000000007ED6D6D6D6A9
:103BB000D6C60000000000000000003E6666666693
:103BC00066660000000000000000003C6666666655
:103BD000663C0000000000000000003E666666666D
:103BE000663E0606060000000000007C666666660B
:103BF000667C60606000000000000066760E0606CD
:103C000006060000000000000000007C06063C6084
:103C1000603E000000000000000C0C7E0C0C0C0C40
:103C20000C78000000000000000000666666666612
:103C3000667C0000000000000000006666666666A4
:103C40003C18000000000000000000C6D6D6D6D602
:103C50006C6C00000000000000000066663C183C30
:103C6000666600000000000000000066666666668A
:103C7000663C30180F0000000000007E6030180C19
:103C8000067E00000000000000301818180C060C1A
:103C90001818183000000000001818181818181804
:103CA0001818181818000000000C18181830603088
:103CB0001818180C00000000008EDB7100000000D6
:103CC00000000000000000000000000000000102F1
:103CD00003040607080900000000010203040000B5
:103CE000003D000800000020240000007C2A00089D
:103CF000243D0008240000202C0500008C2A000828
:103D000000000000000000000000000000000000B3
:103D10000000000001000000100000000000000092
:043D200000A24A04AF
:0400000508000131BD
:00000001FF
